:020000040800F2
:10000000680700208901000845080008B7040008B7
:1000100041080008910200086B0D00080000000074
:100020000000000000000000000000008908000837
:10003000F50200080000000047080008B1090008A8
:10004000A3010008A3010008A3010008A301000800
:10005000A3010008A3010008A3010008A3010008F0
:10006000A3010008A3010008A3010008A3010008E0
:10007000A3010008A3010008A3010008A3010008D0
:10008000A3010008A3010008A3010008A3010008C0
:10009000A3010008A3010008A3010008A3010008B0
:1000A000A3010008A3010008A3010008A3010008A0
:1000B000A3010008A3010008A3010008A301000890
:1000C000A3010008A3010008A3010008A301000880
:1000D000A3010008850C0008A3010008A301000883
:1000E000A3010008A3010008A301000800F002F822
:1000F00000F03AF80AA090E8000C82448344AAF188
:100100000107DA4501D100F02FF8AFF2090EBAE885
:100110000F0013F0010F18BFFB1A43F0010318473B
:100120004837000068370000103A24BF78C878C10B
:10013000FAD8520724BF30C830C144BF04680C60ED
:10014000704700000023002400250026103A28BF35
:1001500078C1FBD8520728BF30C148BF0B60704739
:100160001FB51FBD10B510BD00F033F81146FFF7E5
:10017000F7FF00F023FF00F051F803B4FFF7F2FFA0
:1001800003BC00F041FE00000948804709480047D1
:10019000FEE7FEE7FEE7FEE7FEE7FEE7FEE7FEE737
:1001A000FEE7FEE704480549054A064B7047000094
:1001B000B5090008ED00000868010020680700206C
:1001C000680300206803002070477047704770473D
:1001D0007047754600F02CF8AE4605006946534658
:1001E00020F00700854618B020B5FFF7DBFFBDE81B
:1001F00020404FF000064FF000074FF000084FF08E
:10020000000B21F00701AC46ACE8C009ACE8C0091E
:10021000ACE8C009ACE8C0098D46704710B504468B
:10022000AFF300802046BDE81040FFF7A6BF0000F6
:10023000004870470801002010B500F09BFB01202A
:10024000064908801020C87003208870044800F018
:1002500052F80121024800F02CF910BD00000020E6
:10026000000C014010B500F085FB01200649088014
:100270001020C87003208870044800F03CF8012169
:10028000024800F014F910BD00000020000C0140ED
:1002900000BFFEE710B500F06DFB4FF4806007492A
:1002A00008801020C87003208870054800F023F8EB
:1002B0004FF48061024800F0FAF810BD0000002001
:1002C000000C014010B500F055FB4FF48060074969
:1002D00008801020C87003208870054800F00BF8D3
:1002E0004FF48061024800F0E4F810BD00000020E7
:1002F000000C014070472DE9F04102460025002620
:10030000002000230024002791F803C00CF00F0503
:1003100091F803C00CF0100CBCF1000F03D091F861
:1003200002C04CEA050591F800C0BCF1000F31D0C5
:10033000146800202BE04FF0010C0CFA00F3B1F828
:1003400000C00CEA03069E4220D183004FF00F0C40
:100350000CFA03F7BC4305FA03FC4CEA040491F8D9
:1003600003C0BCF1280F06D14FF0010C0CFA00FCC1
:10037000C2F814C00AE091F803C0BCF1480F05D1DF
:100380004FF0010C0CFA00FCC2F810C0401C082809
:10039000D1D31460B1F800C0BCF1FF0F34DD546854
:1003A00000202EE000F1080C4FF0010808FA0CF3D1
:1003B000B1F800C00CEA03069E4221D183004FF041
:1003C0000F0C0CFA03F7BC4305FA03FC4CEA0404D7
:1003D00091F803C0BCF1280F05D100F1080C08FA10
:1003E0000CF8C2F8148091F803C0BCF1480F07D193
:1003F00000F1080C4FF0010808FA0CF8C2F8108060
:10040000401C0828CED35460BDE8F081F0B50A4600
:10041000002300240021002500F00046B6F1004F23
:1004200002D11D4EF16901E01B4E7168C0F3034516
:1004300083B200F44016B6F5401F08D121F0706178
:10044000154E766826F07066134F7E6012E000F459
:100450008016B6F5801F06D1032606FA05F4A143DF
:1004600041F0706106E0460D360103FA06F6B1432D
:1004700041F0706122B1460D360103FA06F63143B0
:1004800000F00046B6F1004F02D1034EF16101E0E9
:10049000014E7160F0BD00000000014002460020E6
:1004A00093680B400BB1012000E0002070474161D0
:1004B00070470161704700BFFEE7000010B54021A2
:1004C0000B48FFF7F4FF00F08BF880210848FFF796
:1004D000EEFF022000F072FC40210548FFF7E9FF23
:1004E000052000F06BFC40210148FFF7E0FF10BD44
:1004F000000C014008B5C020ADF8000003208DF8C5
:10050000020010208DF8030069460648FFF7F3FE4D
:1005100040210448FFF7CDFF80210248FFF7C9FFC3
:1005200008BD0000000C014010B540210B48FFF74A
:10053000BEFF00F055F880210848FFF7BAFF0220FF
:1005400000F03CFC40210548FFF7B3FF052000F018
:1005500035FC40210148FFF7AAFF10BD000C014007
:1005600070B505460026002400F028F800BF18E00A
:1005700040211148FFF79BFF022000F01FFC4021A3
:100580000D48FFF796FF6006040E80210A48FFF72A
:1005900085FF08B1601CC4B2012000F00FFC701C84
:1005A000C6B2082EE4DB15B9FFF7BEFF01E0FFF786
:1005B00085FF204670BD0000000C014008B580207A
:1005C000ADF8000003208DF8020048208DF80300EC
:1005D00069460248FFF78FFE08BD0000000C01408D
:1005E00008B58020ADF8000003208DF8020010202F
:1005F0008DF8030069460248FFF77DFE08BD000044
:10060000000C014070B504460025FFF7E9FF4021CA
:100610001348FFF74CFF00BF1EE004F080000028E5
:1006200004DD80210E48FFF744FF03E080210C48E1
:10063000FFF73DFF6006040E40210948FFF739FF30
:10064000012000F0BBFB40210548FFF730FF0120EF
:1006500000F0B4FB681CC5B2082DDEDB70BD0000E5
:10066000000C014010B5FFF7BBFF80210A48FFF7DF
:1006700020FF40210848FFF71CFF052000F09EFBEB
:1006800080210548FFF713FF062000F097FB40216B
:100690000148FFF70CFF10BD000C014010B5FFF73B
:1006A0009FFF40210C48FFF702FF80210A48FFF717
:1006B000FEFE012000F082FB40210748FFF7F9FE13
:1006C000032000F07BFB80210348FFF7F2FE0420AB
:1006D00000F074FB10BD0000000C014010B50024B8
:1006E000FFF76CFF80211148FFF7E3FE012000F0C7
:1006F00065FB40210D48FFF7DCFE012000F05EFBAA
:1007000007E0601CC4B2FA2C03DDFFF7C7FF01202D
:1007100010BD80210548FFF7C1FE0028F1D140211E
:100720000248FFF7C4FE0020F2E70000000C014081
:1007300010B500F01FF94FF48070074908800020C1
:10074000C870032088700548FFF7D5FD4FF480710D
:100750000248FFF7AEFE10BD00000020000C014073
:1007600010B500F007F94FF4807007490880102099
:10077000C870032088700548FFF7BDFD4FF48071F5
:100780000248FFF794FE10BD00000020000C01405D
:1007900010B500F0EFF80220064908801020C8705C
:1007A000032088700448FFF7A6FD02210248FFF7E6
:1007B0007EFE10BD000000200008014010B500F0D2
:1007C000D9F80220064908801020C87003208870DC
:1007D0000448FFF790FD02210248FFF76AFE10BDB2
:1007E000000000200008014010B500F0C3F804200C
:1007F000064908801020C870032088700448FFF75D
:100800007AFD04210248FFF752FE10BD00000020CF
:100810000008014010B500F0ADF80420064908803A
:100820001020C870032088700448FFF764FD04217D
:100830000248FFF73EFE10BD000000200008014006
:1008400000BFFEE77047704729B1064AD2690243EC
:10085000044BDA6104E0034AD2698243014BDA6156
:10086000704700000010024029B1064A9269024315
:10087000044B9A6104E0034A92698243014B9A61F6
:100880007047000000100240704710B500F002F8F9
:1008900010BD00000CB500200190009033480068A6
:1008A00040F480303149086000BF3048006800F4EF
:1008B000003000900198401C0190009818B90198F0
:1008C000B0F5A06FF1D12948006800F4003010B1F4
:1008D0000120009001E0002000900098012843D101
:1008E0002348006840F0100021490860084600686D
:1008F00020F0030008600846006840F0020008602D
:100900001A484068194948600846406848600846E7
:10091000406840F4806048600846406820F47C10DD
:1009200048600846406840F4E8104860084600689F
:1009300040F08070086000BF0C48006800F0007054
:100940000028F9D00948406820F0030007494860B2
:100950000846406840F00200486000BF0348406815
:1009600000F00C000828F9D10CBD00000010024076
:100970000020024010B501210C20FFF775FF012176
:100980000846FFF761FF10BD042808D14FF0E021B1
:10099000096941F004014FF0E022116107E04FF0D6
:1009A000E021096921F004014FF0E0221161704754
:1009B0007047000010B51348006840F0010011496D
:1009C000086008464068104908400E4948600846DB
:1009D00000680E4908400B4908600846006820F48A
:1009E000802008600846406820F4FE0048604FF40C
:1009F0001F008860FFF749FF4FF00060044908605E
:100A000010BD0000001002400000FFF8FFFFF6FEDE
:100A100008ED00E021B1028842F00102028004E00A
:100A200002884FF6FE731A400280704710B501210C
:100A30000846FFF709FF01210846FFF715FFFFF7FA
:100A400099FF01201A4908801820C8700320887077
:100A50001848FFF750FC40F2671017490880002043
:100A6000488064208880000700F08EF870201349C9
:100A70000880012048800420888000200881488167
:100A80004FF4807088810020C8815020C880800683
:100A900000F02EF85021880600F021F80121880787
:100AA000FFF7B8FF0121880700F00AF810BD000029
:100AB0000000002000080140240000202E0000203B
:100AC00031B1B0F8442042F40042A0F8442005E0DF
:100AD000B0F84420C2F30E02A0F8442070470A4642
:100AE0000021018B4FF68F7319401143018370472A
:100AF00070B5002400220023058C4FF6FE763540A9
:100B00000584028C8388048B4FF68F752C40B51EAC
:100B10002C400D882C43751E2A400D892A434D8890
:100B20002A43144DA8420BD0134DA84208D0134DB0
:100B3000A84205D0124DA84202D0124DA84213D1AE
:100B40004FF6F7752A404D892A434FF6FB752A4028
:100B50008D882A434FF6FF652B404FF6FF552B40FB
:100B60008D892B43CD892B4383800483CD88858653
:100B7000028470BD002C014000340140004001405F
:100B80000044014000480140002202881D4B984269
:100B90000ED01D4B98420BD0B0F1804F08D01B4BAC
:100BA000984205D01A4B984202D01A4B984204D171
:100BB0004FF68F731A404B881A43174B984207D051
:100BC000164B984204D04FF6FF431A40CB881A4385
:100BD00002808B8883850B8803850A4B98420BD053
:100BE000094B984208D00E4B984205D00D4B9842C5
:100BF00002D00D4B984201D10B7A038601238382E8
:100C000070470000002C0140003401400004004007
:100C100000080040000C004000100040001400409C
:100C200000400140004401400048014010B5FFF77A
:100C3000A1FE4FF40070114908801020C8700320F5
:100C400088700F48FFF757FB4FF400710C48FFF70F
:100C500030FC642000F08CF8FFF782FD4FF4007147
:100C60000748FFF724FCC82000F082F84FF4007119
:100C70000348FFF71EFCFFF75BFD10BD00000020DE
:100C8000000C014010B540F225511D4800F03EF81F
:100C900010B31B4800F064F8C4B21A48008800F48E
:100CA0000040C8B91748008800F4804060B10A2CA1
:100CB00003D000201349088020E01248008840F447
:100CC00000401049088019E00D2C06D10D4800881D
:100CD00040F480400B49088010E00A480088C0F3C7
:100CE0000D0009490C5407480088401C054908803C
:100CF00008460088C72801DD0020088010BD0000DC
:100D000000380140200000203E00002070B502465F
:100D1000002400230025002040F66A16B14200D1CD
:100D200000BFC1F3421501F01F03012606FA03F3C9
:100D3000012D02D19689334006E0022D02D1168A98
:100D4000334001E0968A33400C12012606FA04F47F
:100D50001688344013B10CB1012000E0002070BDB2
:100D600001468888C0F30800704700BFFEE7000016
:100D70000146114A12884A434FF0E0235A6100228B
:100D80009A611A46126942F001021A6100BF4FF0DF
:100D9000E022106900F001021AB100F48032002A4A
:100DA000F5D04FF0E022126922F001024FF0E0236B
:100DB0001A6100229A6170471A0000200146114A08
:100DC00012784A434FF0E0235A6100229A611A4692
:100DD000126942F001021A6100BF4FF0E02210696F
:100DE00000F001021AB100F48032002AF5D04FF071
:100DF000E022126922F001024FF0E0231A61002282
:100E00009A61704718000020014600BF704700003B
:100E100010B56FF00400FFF7B7FD0A4800680A49F3
:100E2000B0FBF1F0094908700846007800EB40017A
:100E3000C1EBC0104FF6FF7101EAC0000449088001
:100E400010BD00000400002000127A0018000020ED
:100E50001A00002070B50446FFF704FC1E20FFF7BF
:100E6000D1FBFFF73BFC2012FFF7CCFBFFF736FC72
:100E7000E0B2FFF7C7FBFFF731FCFFF7F3FB1F20E2
:100E8000FFF7C0FBFFF72AFC0120FFF769FB0546CF
:100E90000020FFF765FB45EA0025FFF7FFFB28462A
:100EA00070BD70B50446FFF7DDFB1E20FFF7AAFBFF
:100EB000FFF714FC2012FFF7A5FBFFF70FFCE0B2D1
:100EC000FFF7A0FBFFF70AFCFFF7CCFB1F20FFF7A3
:100ED00099FBFFF703FC0020FFF742FB0546FFF7F5
:100EE000DDFB284670BD70B504460D46FFF7BAFB22
:100EF0001E20FFF787FBFFF7F1FB2012FFF782FBB5
:100F0000FFF7ECFBE0B2FFF77DFBFFF7E7FBE8B292
:100F1000FFF778FBFFF7E2FB2812FFF773FBFFF701
:100F2000DDFBFFF7BBFB70BD70B505460C46FFF758
:100F300099FB1E20FFF766FBFFF7D0FB2812FFF797
:100F400061FBFFF7CBFBE8B2FFF75CFBFFF7C6FBEB
:100F5000E0B2FFF757FBFFF7C1FBC4F30720FFF731
:100F600051FBFFF7BBFB210AC1F30720FFF74AFB48
:100F7000FFF7B4FB200EFFF745FBFFF7AFFBFFF7D2
:100F80008DFB70BD70B504460D46FFF76BFB1E2050
:100F9000FFF738FBFFF7A2FB2012FFF733FBFFF749
:100FA0009DFBE0B2FFF72EFBFFF798FB2846FFF70B
:100FB00029FBFFF793FBFFF771FB70BDFFF714FCF4
:100FC00001210920FFF750FC0121FE48FFF71EFA1E
:100FD000FFF71EFFFFF72AFDFFF78CFAFFF742F934
:100FE000FFF7D6FBFFF722FE1420FFF7C1FEFFF745
:100FF00011FCC820FFF7BCFEFFF7F6FB1420FFF73B
:10100000B7FEFFF707FC0520FFF7B2FE02F029BC90
:1010100004210846FFF767FF4FF47C510220FFF7D9
:1010200062FF00210220FFF75EFF08210620FFF784
:101030005AFF40F63F711620FFF755FFFF2148F297
:101040000250FFF79FFFFF2148F20B50FFF79AFF76
:1010500040F63F711420FFF746FFFE2148F2125080
:10106000FFF790FFFD2148F21B50FFF78BFF032194
:1010700048F21040FFF786FF3F2148F21340FFF788
:1010800081FF072148F22040FFF77CFF312148F221
:10109000F040FFF777FF012148F2F440FFF772FFBD
:1010A0004FF4965148F24050FFF71DFF002148F2DF
:1010B0003060FFF767FF40F2537148F23160FFF78D
:1010C00012FF022148F27060FFF75CFF4FF4965167
:1010D00048F60C20FFF707FF012148F2E050FFF728
:1010E00051FF4FF4807148F2E350FFF7FCFE0021FE
:1010F0004FF40C40FFF746FFFF2148F60140FFF791
:1011000041FFFF2148F60240FFF73CFFFF2148F670
:101110000340FFF737FFFF2148F60440FFF732FF97
:10112000FF2148F60540FFF72DFFFF2148F6064056
:10113000FFF728FF002148F60740FFF723FF522161
:1011400048F60840FFF71EFF622148F60940FFF706
:1011500019FF882148F60A40FFF714FF882148F656
:101160000B40FFF70FFF002148F60C40FFF70AFF86
:10117000882148F60D40FFF705FF882148F60E400C
:10118000FFF700FF882148F60F40FFF7FBFE2D21F7
:1011900048F61040FFF7F6FE1E2148F61140FFF713
:1011A000F1FE012148F61240FFF7ECFE032148F65C
:1011B0001340FFF7E7FE802148F61440FFF7E2FEF8
:1011C000002148F61540FFF7DDFE002148F61640E5
:1011D000FFF7D8FE782148F61740FFF7D3FE0A2123
:1011E00048F61840FFF7CEFE0D2148F61940FFF7EC
:1011F000C9FEC92148F61A40FFF7C4FEA02148F6EF
:101200001B40FFF7BFFE572148F61C40FFF7BAFE10
:10121000472148F61D40FFF7B5FE982148F61E40CD
:10122000FFF7B0FE272148F61F40FFF7ABFE122163
:1012300048F62040FFF7A6FE482148F62140FFF778
:10124000A1FE4C2148F62240FFF79CFE002148F603
:101250002340FFF797FE002148F62440FFF792FE57
:10126000002148F62540FFF78DFE012148F6264073
:10127000FFF788FE012148F62740FFF783FE012192
:1012800048F62840FFF77EFE012148F62940FFF787
:1012900079FE012148F62A40FFF774FE012148F645
:1012A0002B40FFF76FFE012148F62C40FFF76AFE46
:1012B000012148F62D40FFF765FE012148F62E403A
:1012C000FFF760FE012148F62F40FFF75BFE01218A
:1012D00048F63040FFF756FE012148F63140FFF74F
:1012E00051FE012148F63240FFF74CFE012148F63D
:1012F0003340FFF747FE012148F63440FFF742FE36
:10130000012148F63540FFF73DFE402148F63640C2
:10131000FFF738FE3D2148F63740FFF733FEB02196
:1013200048F63840FFF72EFEB62148F63940FFF761
:1013300029FE402148F63A40FFF724FE802148F676
:101340003B40FFF71FFE1B2148F63C40FFF71AFE0B
:10135000702148F63D40FFF715FE6E2148F63E40ED
:10136000FFF710FE202148F63F40FFF70BFEB221A9
:1013700048F64040FFF706FE002148F64140FFF7DF
:1013800001FEB02148F64240FFF7FCFD802148F6FF
:101390004340FFF7F7FD472148F64440FFF7F2FDD1
:1013A000002148F64540FFF7EDFD002148F6464094
:1013B000FFF7E8FD1E2148F64740FFF7E3FD402117
:1013C00002E000000002300048F64840FFF7DAFD76
:1013D0003D2148F64940FFF7D5FDB02148F64A4087
:1013E000FFF7D0FDB62148F64B40FFF7CBFD40217B
:1013F00048F64C40FFF7C6FD802148F64D40FFF708
:10140000C1FD1B2148F64E40FFF7BCFD702148F698
:101410004F40FFF7B7FD6E2148F65040FFF7B2FD91
:10142000202148F65140FFF7ADFDB22148F6524069
:10143000FFF7A8FD002148F65340FFF7A3FDB021B8
:1014400048F65440FFF79EFD802148F65540FFF7CF
:1014500099FD472148F65640FFF794FD002148F6D4
:101460005740FFF78FFD002148F65840FFF78AFDEF
:101470001E2148F65940FFF785FD002148F65A40E5
:10148000FFF780FD002148F65B40FFF77BFD002160
:1014900048F65C40FFF776FDFC2148F65D40FFF71B
:1014A00071FD002148F65E40FFF76CFD542148F6BF
:1014B0005F40FFF767FD6F2148F66040FFF762FD70
:1014C000732148F66140FFF75DFD682148F66240F0
:1014D000FFF758FD692148F66340FFF753FD62218D
:1014E00048F66440FFF74EFD612148F66540FFF77E
:1014F00049FD2D2148F66640FFF744FD552148F689
:101500006740FFF73FFD482148F66840FFF73AFD86
:10151000322148F66940FFF735FD442148F66A401C
:10152000FFF730FD0A2148F66B40FFF72BFD002145
:1015300048F66C40FFF726FD002148F66D40FFF7A6
:1015400021FD002148F66E40FFF71CFDFD2148F605
:101550006F40FFF717FD002148F67040FFF712FDBE
:10156000142148F67140FFF70DFD782148F67240CE
:10157000FFF708FD012148F67340FFF703FDFF2147
:1015800048F67440FFF7FEFC1D2148F67540FFF752
:10159000F9FC002148F67640FFF7F4FC0A2148F6F2
:1015A0007740FFF7EFFC202148F67840FFF7EAFC90
:1015B000202148F67940FFF7E5FC202148F67A40E3
:1015C000FFF7E0FC202148F67B40FFF7DBFC202101
:1015D00048F67C40FFF7D6FC202148F67D40FFF717
:1015E000D1FC012148F67E40FFF7CCFC492148F6AA
:1015F0007F40FFF7C7FC022148F68040FFF7C2FC9E
:10160000032148F68140FFF7BDFC1A2148F68240CD
:10161000FFF7B8FC712148F68340FFF7B3FC472180
:1016200048F68440FFF7AEFCC62148F68540FFF738
:10163000A9FC462148F68640FFF7A4FC462148F65F
:101640008740FFF79FFC462148F68840FFF79AFC49
:10165000462148F68940FFF795FC462148F68A4026
:10166000FFF790FC462148F68B40FFF78BFC2321C7
:1016700048F68C40FFF786FC092148F68D40FFF7BD
:1016800081FC072148F68E40FFF77CFC012148F6DB
:101690008F40FFF777FC832148F69040FFF772FCFC
:1016A000012148F69140FFF76DFC002148F6924079
:1016B000FFF768FC002148F69340FFF763FC6521C3
:1016C00048F69440FFF75EFC032148F69540FFF78B
:1016D00059FC0C2148F69640FFF754FC002148F6CF
:1016E0009740FFF74FFC102148F69840FFF74AFC5F
:1016F000002148F69940FFF745FC402148F69A4002
:10170000FFF740FC3D2148F69B40FFF73BFCB02132
:1017100048F69C40FFF736FCB62148F69D40FFF79F
:1017200031FC402148F69E40FFF72CFC802148F612
:101730009F40FFF727FC1B2148F6A040FFF722FC43
:10174000702148F6A140FFF71DFC6E2148F6A2402B
:10175000FFF718FC202148F6A340FFF713FCB22145
:1017600048F6A440FFF70EFC002148F6A540FFF71D
:1017700009FCB02148F6A640FFF704FC802148F69A
:10178000A740FFF7FFFB472148F6A840FFF7FAFB09
:10179000002148F6A940FFF7F5FB002148F6AA40D2
:1017A000FFF7F0FB1E2148F6AB40FFF7EBFB4021B3
:1017B00048F6AC40FFF7E6FB3D2148F6AD40FFF7A9
:1017C000E1FBB02148F6AE40FFF7DCFBB62148F65E
:1017D000AF40FFF7D7FB402148F6B040FFF7D2FB00
:1017E000802148F6B140FFF7CDFB1B2148F6B240FF
:1017F000FFF7C8FB702148F6B340FFF7C3FB6E212B
:1018000048F6B440FFF7BEFB202148F6B540FFF78D
:10181000B9FBB22148F6B640FFF7B4FB002148F609
:10182000B740FFF7AFFBB02148F6B840FFF7AAFB7F
:10183000802148F6B940FFF7A5FB472148F6BA409A
:10184000FFF7A0FB002148F6BB40FFF79BFB002100
:1018500048F6BC40FFF796FB1E2148F6BD40FFF757
:1018600091FB402148F6BE40FFF78CFB3D2148F636
:10187000BF40FFF787FBB02148F6C040FFF782FB6F
:10188000B62148F6C140FFF77DFB402148F6C24033
:10189000FFF778FB802148F6C340FFF773FB1B215D
:1018A00048F6C440FFF76EFB702148F6C540FFF7CD
:1018B00069FB6E2148F6C640FFF764FB202148F61D
:1018C000C740FFF75FFBB22148F6C840FFF75AFB5D
:1018D000002148F6C940FFF755FBB02148F6CA4041
:1018E000FFF750FB802148F6CB40FFF74BFB472129
:1018F00048F6CC40FFF746FB002148F6CD40FFF705
:1019000041FB002148F6CE40FFF73CFB1E2148F684
:10191000CF40FFF737FB402148F6D040FFF732FBBE
:101920003D2148F6D140FFF72DFBB02148F6D240CB
:10193000FFF728FBB62148F6D340FFF723FB4021F1
:1019400048F6D440FFF71EFB802148F6D540FFF74C
:1019500019FB1B2148F6D640FFF714FB702148F60F
:10196000D740FFF70FFB6E2148F6D840FFF70AFB80
:10197000202148F6D940FFF705FBB22148F6DA40AE
:10198000FFF700FB002148F6DB40FFF7FBFAB02130
:1019900048F6DC40FFF7F6FA802148F6DD40FFF715
:1019A000F1FA472148F6DE40FFF7ECFA002148F64D
:1019B000DF40FFF7E7FA002148F6E040FFF7E2FAE0
:1019C0001E2148F6E140FFF7DDFA002148F6E2402B
:1019D000FFF7D8FA002148F6E340FFF7D3FA0021D9
:1019E00048F6E440FFF7CEFA002148F6E540FFF75D
:1019F000C9FA002148F6E640FFF7C4FA002148F68C
:101A0000E740FFF7BFFA002148F6E840FFF7BAFACF
:101A1000002148F6E940FFF7B5FA002148F6EA4010
:101A2000FFF7B0FA002148F6EB40FFF7ABFA0021D0
:101A300048F6EC40FFF7A6FA002148F6ED40FFF724
:101A4000A1FA002148F6EE40FFF79CFA002148F683
:101A5000EF40FFF797FA002148F6F040FFF792FABF
:101A6000002148F6F140FFF78DFA002148F6F240D8
:101A7000FFF788FA002148F6F340FFF783FA0021C8
:101A800048F6F440FFF77EFA002148F6F540FFF7EC
:101A900079FA002148F6F640FFF774FA002148F67B
:101AA000F740FFF76FFA002148F6F840FFF76AFAAF
:101AB000002148F6F940FFF765FA002148F6FA40A0
:101AC000FFF760FA002148F6FB40FFF75BFA0021C0
:101AD00048F6FC40FFF756FA002148F6FD40FFF7B4
:101AE00051FA002148F6FE40FFF74CFA772148F6FC
:101AF000FF40FFF747FA022148F24350FFF742FA4E
:101B0000102148F24450FFF73DFA00214FF40640FF
:101B1000FFF738FAF32148F20260FFF733FA0221A7
:101B200048F20360FFF72EFA0C2148F20460FFF739
:101B300029FA052148F20660FFF724FA002148F24D
:101B40000760FFF71FFA022148F25260FFF71AFA06
:101B5000FE4948F27160FFF7E7F9FD4948F2756008
:101B6000FFF7E2F9002148F28060FFF70BFA40F638
:101B70001F711620FFF7B7F901210220FFF7B3F913
:101B800000210220FFF7AFF90120FFF717F9142019
:101B9000FFF760F91A20FFF75DF948F20250FFF7EE
:101BA00080F948F20B50FFF77CF948F22050FFF71C
:101BB00078F940F63F711620FFF795F9FF2148F2BA
:101BC0000250FFF7DFF9FF2148F20B50FFF7DAF977
:101BD00040F63F711420FFF786F940F63F5116207A
:101BE000FFF781F9012148F24A50FFF7CBF90021B4
:101BF0000220FFF778F90120FFF7E0F81420FFF743
:101C000029F91A20FFF726F948F20250FFF749F99F
:101C100048F20B50FFF745F948F22050FFF741F921
:101C200040F63F711620FFF75EF9FF2148F202509F
:101C3000FFF7A8F9FF2148F20B50FFF7A3F940F690
:101C40003F711420FFF74FF90120FFF7B7F840F676
:101C500032410420FFF747F94FF490510220FFF77B
:101C600042F900210220FFF73EF9422148F6022006
:101C7000FFF788F901214FF48470FFF755F901212E
:101C80004FF48670FFF750F901214FF42870FFF7E9
:101C90004BF949F2C7014FF42B70FFF745F90120CA
:101CA000FFF766F803214FF42870FFF73DF9142180
:101CB0004FF48C70FFF738F941F270714FF4907067
:101CC000FFF732F900214FF49270FFF72DF940F23F
:101CD00001114FF49470FFF727F94FF480314FF45E
:101CE0009870FFF721F94FF4A0414FF49A70FFF775
:101CF0001BF94FF480314FF49C70FFF715F94FF446
:101D000080314FF49E70FFF70FF94FF480314FF49C
:101D1000A070FFF709F94FF480314FF4A270FFF77C
:101D200003F94FF480514FF4A470FFF7FDF84FF41E
:101D300080314FF4A670FFF7F7F840F261114FF4CD
:101D4000A870FFF7F1F801214FF4AA70FFF7ECF843
:101D5000C8214FF4AC70FFF7E7F82A214FF4B470B4
:101D6000FFF7E2F84FF47E714FF4B870FFF7DCF83C
:101D700081214FF4BE70FFF7D7F862214FF4C6708F
:101D8000FFF7D2F8DD214FF4C870FFF7CDF800213E
:101D90004FF4D270FFF7C8F815214FF4E070FFF749
:101DA000C3F800214FF40570FFF7BEF880214FF40F
:101DB0000770FFF7B9F800214FF40970FFF7B4F886
:101DC00006214FF41570FFF7AFF862494FF4167013
:101DD000FFF7AAF860494FF41770FFF7A5F85F49BD
:101DE0004FF41870FFF7A0F844F620614FF4197013
:101DF000FFF79AF80C214FF41A70FFF795F858493D
:101E00004FF41B70FFF790F820214FF41C70FFF780
:101E10008BF81F214FF41D70FFF786F84FF0061165
:101E20004FF41E70FFF780F802214FF41F70FFF788
:101E30007BF801214FF48E70FFF776F800214FF404
:101E4000A060FFF750F816214FF48870FFF76CF888
:101E500016214FF44470FFF767F841F28830FEF71F
:101E600087FF41F28830FEF783FF152140F20450CE
:101E7000FFF739F84AF28F5140F20450FFF733F878
:101E80000120FEF775FF152140F20450FFF72BF8F3
:101E9000832140F20450FFF726F80120FEF78EFF61
:101EA000152140F20450FFF71EF8842140F204503F
:101EB000FFF719F80120FEF781FF152140F20450C9
:101EC000FFF711F840F2916140F20450FFF70BF870
:101ED0000120FEF773FF152140F20450FFF703F8CD
:101EE00048F68C6140F20450FEF7FDFF0120FEF73A
:101EF00065FF152140F20450FEF7F5FF46F6CD418F
:101F000040F20450FEF7EFFF0120FEF757FF1521C6
:101F100040F20450FEF7E7FF46F6C03140F20450AD
:101F2000FEF7E1FF0120FEF749FF152140F20450C2
:101F3000FEF7D9FF48F6C03140F20450FEF7D3FF58
:101F40000120FEF73BFF15210CE00000BA490C020E
:101F500089B0E1010500280006000A0006000F0014
:101F600008000C0040F20450FEF7BDFF4FF2C8011C
:101F700040F20450FEF7B7FF0120FEF71FFF1521C6
:101F800040F20450FEF7AFFF972140F20450FEF7F5
:101F9000AAFF0120FEF712FF152140F20450FEF7C0
:101FA000A2FF41F28B0140F20450FEF79CFF01209A
:101FB000FEF704FF152140F20450FEF794FF42F2B1
:101FC000A90140F20450FEF78EFF0120FEF7F6FE55
:101FD000152140F20450FEF786FF41F2FA2140F24B
:101FE0000450FEF780FF0120FEF7E8FE152140F2C5
:101FF0000450FEF778FF41F6FD3140F20450FEF741
:1020000072FF0120FEF7DAFE152140F20450FEF7C0
:102010006AFF4AF6832140F20450FEF764FF012074
:10202000FEF7CCFE152140F20450FEF75CFF41F2B2
:10203000841140F20450FEF756FF0120FEF7BEFE69
:10204000152140F20450FEF74EFF44F6A93140F24C
:102050000450FEF748FF0120FEF7B0FE152140F2C4
:102060000450FEF740FF40F2854140F20450FEF775
:102070003AFF0120FEF7A2FE152140F20450FEF7C0
:1020800032FF40F6860140F20450FEF72CFF01209B
:10209000FEF794FE152140F20450FEF724FF41F2B2
:1020A0009C0140F20450FEF71EFF0120FEF786FE61
:1020B000152140F20450FEF716FF4FF4E07140F294
:1020C0000450FEF710FF0120FEF778FE152140F2C4
:1020D0000450FEF708FF40F2C15140F20450FEF7F1
:1020E00002FF0120FEF76AFE152140F20450FEF7C0
:1020F000FAFE41F6C20140F20450FEF7F4FE012060
:10210000FEF75CFE152140F20450FEF7ECFE42F6AD
:10211000C31140F20450FEF7E6FE0120FEF74EFE2A
:10212000152140F20450FEF7DEFE43F2C45140F2A6
:102130000450FEF7D8FE0120FEF740FE152140F2C4
:102140000450FEF7D0FE43F6C56140F20450FEF79E
:10215000CAFE0120FEF732FE152140F20450FEF7C0
:10216000C2FE44F6C63140F20450FEF7BCFE012028
:10217000FEF724FE152140F20450FEF7B4FE45F2AE
:10218000C76140F20450FEF7AEFE0120FEF716FED6
:10219000152140F20450FEF7A6FE45F6C83140F284
:1021A0000450FEF7A0FE0120FEF708FE152140F2C4
:1021B0000450FEF798FE4CF6C94140F20450FEF779
:1021C00092FE0120FEF7FAFD152140F20450FEF7C1
:1021D0008AFE4DF2CA7140F20450FEF784FE0120DF
:1021E000FEF7ECFD152140F20450FEF77CFE4EF6A2
:1021F000CB7140F20450FEF776FE0120FEF7DEFDC3
:10220000152140F20450FEF76EFE4FF6CC1140F25D
:102210000450FEF768FE0120FEF7D0FD152140F2C4
:102220000450FEF760FECD2140F20450FEF75BFE45
:102230000120FEF7C3FD152140F20450FEF753FEC6
:102240004FF2CE7140F20450FEF74DFE0120FEF732
:10225000B5FD152140F20450FEF745FE4FF6CF11B3
:1022600040F20450FEF73FFE0120FEF7A7FD1521C6
:1022700040F20450FEF737FE4FF6D07140F20450A2
:10228000FEF731FE0120FEF799FD152140F20450C2
:10229000FEF729FE41F2D12140F20450FEF723FE61
:1022A0000120FEF78BFD152140F20450FEF71BFEC6
:1022B00042F2D27140F20450FEF715FE0120FEF703
:1022C0007DFD152140F20450FEF70DFE44F6D3418A
:1022D00040F20450FEF707FE0120FEF76FFD1521C6
:1022E00040F20450FEF7FFFD45F2D46140F2045085
:1022F000FEF7F9FD0120FEF761FD152140F20450C3
:10230000FEF7F1FD4BF6D52140F20450FEF7EBFD50
:102310000120FEF753FD152140F20450FEF7E3FDC6
:102320004BF6D66140F20450FEF7DDFD0120FEF7CA
:1023300045FD152140F20450FEF7D5FD4CF6D711AE
:1023400040F20450FEF7CFFD0120FEF737FD1521C6
:1023500040F20450FEF7C7FD4CF6D87140F204502D
:10236000FEF7C1FD0120FEF729FD152140F20450C2
:10237000FEF7B9FD4DF6D92140F20450FEF7B3FD4A
:102380000120FEF71BFD152140F20450FEF7ABFDC6
:102390004EF2DA5140F20450FEF7A5FD0120FEF79F
:1023A0000DFD152140F20450FEF79DFD4FF2DB417B
:1023B00040F20450FEF797FD0120FEF7FFFC1521C7
:1023C00040F20450FEF78FFD4FF6DC5140F204500E
:1023D000FEF789FD0120FEF7F1FC152140F20450C3
:1023E000FEF781FD4FF6DD7140F20450FEF77BFDF4
:1023F0000120FEF7E3FC152140F20450FEF773FDC7
:1024000041F2DE0140F20450FEF76DFD0120FEF7BF
:10241000D5FC152140F20450FEF765FD42F6DF7150
:1024200040F20450FEF75FFD0120FEF7C7FC1521C6
:1024300040F20450FEF757FD4FF4DF5140F20450D4
:10244000FEF751FD0120FEF7B9FC152140F20450C2
:10245000FEF749FD41F6E17140F20450FEF743FDFD
:102460000120FEF7ABFC152140F20450FEF73BFDC6
:1024700043F2E22140F20450FEF735FD0120FEF761
:102480009DFC152140F20450FEF72DFD44F2E3318E
:1024900040F20450FEF727FD0120FEF78FFC1521C6
:1024A00040F20450FEF71FFD44F6E47140F2045080
:1024B000FEF719FD0120FEF781FC152140F20450C2
:1024C000FEF711FD45F6E50140F20450FEF70BFD65
:1024D0000120FEF773FC152140F20450FEF703FDC6
:1024E00046F2E63140F20450FEF7FDFC0120FEF713
:1024F00065FC152140F20450FEF7F5FC46F6E72195
:1025000040F20450FEF7EFFC0120FEF757FC1521C6
:1025100040F20450FEF7E7FC47F2E87140F2045045
:10252000FEF7E1FC0120FEF749FC152140F20450C2
:10253000FEF7D9FC4EF6E92140F20450FEF7D3FC39
:102540000120FEF73BFC152140F20450FEF7CBFCC6
:102550004EF2EA7140F20450FEF7C5FC0120FEF78E
:102560002DFC152140F20450FEF7BDFC4FF6EB3177
:1025700040F20450FEF7B7FC0120FEF71FFC1521C6
:1025800040F20450FEF7AFFC4FF47B7140F2045070
:10259000FEF7A9FC0120FEF711FC152140F20450C2
:1025A000FEF7A1FC4FF6ED0140F20450FEF79BFC54
:1025B0000120FEF703FC152140F20450FEF793FCC6
:1025C0004FF2EE7140F20450FEF78DFC0120FEF751
:1025D000F5FB152140F20450FEF785FC4FF6EF1194
:1025E00040F20450FEF77FFC0120FEF7E7FB1521C7
:1025F00040F20450FEF777FC4FF2F07140F20450C5
:10260000FEF771FC0120FEF7D9FB152140F20450C2
:10261000FEF769FC40F2F12140F20450FEF763FC42
:102620000120FEF7CBFB152140F20450FEF75BFCC6
:1026300041F2F27140F20450FEF755FC0120FEF722
:10264000BDFB152140F20450FEF74DFC43F2F3416F
:1026500040F20450FEF747FC0120FEF7AFFB1521C6
:1026600040F20450FEF73FFC43F6F46140F20450A0
:10267000FEF739FC0120FEF7A1FB152140F20450C2
:10268000FEF731FC4AF2F52140F20450FEF72BFC34
:102690000120FEF793FB152140F20450FEF723FCC6
:1026A0004AF2F62140F20450FEF71DFC0120FEF72D
:1026B00085FB152140F20450FEF715FC4AF6F75150
:1026C00040F20450FEF70FFC0120FEF777FB1521C6
:1026D00040F20450FEF707FC4BF6F81140F20450AC
:1026E000FEF701FC0120FEF769FB152140F20450C2
:1026F000FEF7F9FB4CF2F92140F20450FEF7F3FB30
:102700000120FEF75BFB152140F20450FEF7EBFBC6
:102710004CF6FA3140F20450FEF7E5FB0120FEF7DB
:102720004DFB152140F20450FEF7DDFB4DF6FB2179
:1027300040F20450FEF7D7FB0120FEF73FFB1521C6
:1027400040F20450FEF7CFFB4EF2FC3140F2045051
:10275000FEF7C9FB0120FEF731FB152140F20450C2
:10276000FEF7C1FB4FF6FD7140F20450FEF7BBFBD4
:102770000120FEF723FB152140F20450FEF7B3FBC6
:1027800040F6FE0140F20450FEF7ADFB0120FEF7DB
:1027900015FB152140F20450FEF7A5FB42F6FF7130
:1027A00040F20450FEF79FFB0120FEF707FB1521C6
:1027B00040F20450FEF797FB4BF6833140F2045091
:1027C000FEF791FB0120FEF7F9FA152140F20450C3
:1027D000FEF789FB42F2842140F20450FEF783FBAE
:1027E0000120FEF7EBFA152140F20450FEF77BFBC7
:1027F0004FF4E07140F20450FEF775FB0120FEF744
:10280000DDFA152140F20450FEF76DFB40F2C15194
:1028100040F20450FEF767FB0120FEF7CFFA1521C6
:1028200040F20450FEF75FFB41F6C20140F2045053
:10283000FEF759FB0120FEF7C1FA152140F20450C2
:10284000FEF751FB42F6C31140F20450FEF74BFB7A
:102850000120FEF7B3FA152140F20450FEF743FBC6
:1028600043F2C45140F20450FEF73DFB0120FEF755
:10287000A5FA152140F20450FEF735FB43F6C56179
:1028800040F20450FEF72FFB0120FEF797FA1521C6
:1028900040F20450FEF727FB44F6C63140F20450E4
:1028A000FEF721FB0120FEF789FA152140F20450C2
:1028B000FEF719FB45F2C76140F20450FEF713FB27
:1028C0000120FEF77BFA152140F20450FEF70BFBC6
:1028D00045F6C83140F20450FEF705FB0120FEF733
:1028E0006DFA152140F20450FEF7FDFA4CF6C9418D
:1028F00040F20450FEF7F7FA0120FEF75FFA1521C7
:1029000040F20450FEF7EFFA4DF2CA7140F2045063
:10291000FEF7E9FA0120FEF751FA152140F20450C2
:10292000FEF7E1FA4EF6CB7140F20450FEF7DBFA07
:102930000120FEF743FA152140F20450FEF7D3FAC6
:102940004FF6CC1140F20450FEF7CDFA0120FEF70D
:1029500035FA152140F20450FEF7C5FACD2140F2B8
:102960000450FEF7C0FA0120FEF728FA152140F2C4
:102970000450FEF7B8FA4FF2CE7140F20450FEF761
:10298000B2FA0120FEF71AFA152140F20450FEF7C0
:10299000AAFA4FF6CF1140F20450FEF7A4FA012034
:1029A000FEF70CFA152140F20450FEF79CFA4FF6A0
:1029B000D07140F20450FEF796FA0120FEF7FEF9BE
:1029C000152140F20450FEF78EFA41F2D12140F277
:1029D0000450FEF788FA0120FEF7F0F9152140F2C5
:1029E0000450FEF780FA42F2D27140F20450FEF732
:1029F0007AFA0120FEF7E2F9152140F20450FEF7C1
:102A000072FA44F6D34140F20450FEF76CFA01200A
:102A1000FEF7D4F9152140F20450FEF764FA45F2AE
:102A2000D46140F20450FEF75EFA0120FEF7C6F9C9
:102A3000152140F20450FEF756FA4BF6D52140F22C
:102A40000450FEF750FA0120FEF7B8F9152140F2C4
:102A50000450FEF748FA4BF6D66140F20450FEF7F8
:102A600042FA0120FEF7AAF9152140F20450FEF7C0
:102A70003AFA4CF6D71140F20450FEF734FA01202E
:102A8000FEF79CF9152140F20450FEF72CFA4CF6A3
:102A9000D87140F20450FEF726FA0120FEF78EF9B5
:102AA000152140F20450FEF71EFA4DF6D92140F2EE
:102AB0000450FEF718FA0120FEF780F9152140F2C4
:102AC0000450FEF710FA4EF2DA5140F20450FEF7CD
:102AD0000AFA0120FEF772F9152140F20450FEF7C0
:102AE00002FA4FF2DB4140F20450FEF7FCF90120FC
:102AF000FEF764F9152140F20450FEF7F4F94FF6A1
:102B0000DC5140F20450FEF7EEF90120FEF756F9D1
:102B1000152140F20450FEF7E6F94FF6DD7140F260
:102B20000450FEF7E0F90120FEF748F9152140F2C4
:102B30000450FEF7D8F941F2DE0140F20450FEF7EE
:102B4000D2F90120FEF73AF9152140F20450FEF7C0
:102B5000CAF942F6DF7140F20450FEF7C4F90120D1
:102B6000FEF72CF9152140F20450FEF7BCF94FF4A2
:102B7000DF5140F20450FEF7B6F90120FEF71EF9CE
:102B8000152140F20450FEF7AEF941F6E17140F232
:102B90000450FEF7A8F90120FEF710F9152140F2C4
:102BA0000450FEF7A0F943F2E22140F20450FEF790
:102BB0009AF90120FEF702F9152140F20450FEF7C0
:102BC00092F944F2E33140F20450FEF78CF901200F
:102BD000FEF7F4F8152140F20450FEF784F944F6AC
:102BE000E47140F20450FEF77EF90120FEF7E6F8AA
:102BF000152140F20450FEF776F945F6E50140F262
:102C00000450FEF770F90120FEF7D8F8152140F2C4
:102C10000450FEF768F946F2E63140F20450FEF740
:102C200062F90120FEF7CAF8152140F20450FEF7C0
:102C30005AF946F6E72140F20450FEF754F9012014
:102C4000FEF7BCF8152140F20450FEF74CF947F2AC
:102C5000E87140F20450FEF746F90120FEF7AEF8A5
:102C6000152140F20450FEF73EF94EF6E92140F2FC
:102C70000450FEF738F90120FEF7A0F8152140F2C4
:102C80000450FEF730F94EF2EA7140F20450FEF7BC
:102C90002AF90120FEF792F8152140F20450FEF7C0
:102CA00022F94FF6EB3140F20450FEF71CF90120F7
:102CB000FEF784F8152140F20450FEF714F94FF4A2
:102CC0007B7140F20450FEF70EF90120FEF776F812
:102CD000152140F20450FEF706F94FF6ED0140F2DF
:102CE0000450FEF700F90120FEF768F8152140F2C4
:102CF0000450FEF7F8F84FF2EE7140F20450FEF780
:102D0000F2F80120FEF75AF8152140F20450FEF7C0
:102D1000EAF84FF6EF1140F20450FEF7E4F8012014
:102D2000FEF74CF8152140F20450FEF7DCF84FF2A4
:102D3000F07140F20450FEF7D6F80120FEF73EF89D
:102D4000152140F20450FEF7CEF840F2F12140F296
:102D50000450FEF7C8F80120FEF730F8152140F2C4
:102D60000450FEF7C0F841F2F27140F20450FEF751
:102D7000BAF80120FEF722F8152140F20450FEF7C0
:102D8000B2F843F2F34140F20450FEF7ACF80120F0
:102D9000FEF714F8152140F20450FEF7A4F843F6AC
:102DA000F46140F20450FEF79EF80120FEF706F8A9
:102DB000152140F20450FEF796F84AF2F52140F250
:102DC0000450FEF790F80120FDF7F8FF152140F2BE
:102DD0000450FEF788F84AF2F62140F20450FEF75C
:102DE00082F80120FDF7EAFF152140F20450FEF7BA
:102DF0007AF84AF6F75140F20450FEF774F80120D1
:102E0000FDF7DCFF152140F20450FEF76CF84BF69D
:102E1000F81140F20450FEF766F80120FDF7CEFFEE
:102E2000152140F20450FEF75EF84CF2F92140F211
:102E30000450FEF758F80120FDF7C0FF152140F2BD
:102E40000450FEF750F84CF6FA3140F20450FEF709
:102E50004AF80120FDF7B2FF152140F20450FEF7B9
:102E600042F84DF6FB2140F20450FEF73CF80120F9
:102E7000FDF7A4FF152140F20450FEF734F84EF29E
:102E8000FC3140F20450FEF72EF80120FDF796FFCA
:102E9000152140F20450FEF726F84FF6FD7140F27E
:102EA0000450FEF720F80120FDF788FF152140F2BD
:102EB0000450FEF718F840F6FE0140F20450FEF709
:102EC00012F80120FDF77AFF152140F20450FEF7B9
:102ED0000AF842F6FF7140F20450FEF704F80120B0
:102EE000FDF76CFF152140F20450FDF7FCFF4CF696
:102EF000834140F20450FDF7F6FF0120FDF75EFF2D
:102F0000152140F20450FDF7EEFF43F2843140F208
:102F10000450FDF7E8FF0120FDF750FF152140F2B6
:102F20000450FDF7E0FF4FF4E07140F20450FDF76C
:102F3000DAFF0120FDF742FF152140F20450FDF7B2
:102F4000D2FF40F2C15140F20450FDF7CCFF012006
:102F5000FDF734FF152140F20450FDF7C4FF41F6A0
:102F6000C20140F20450FDF7BEFF0120FDF726FF2D
:102F7000152140F20450FDF7B6FF42F6C31140F2AE
:102F80000450FDF7B0FF0120FDF718FF152140F2B6
:102F90000450FDF7A8FF43F2C45140F20450FDF77E
:102FA000A2FF0120FDF70AFF152140F20450FDF7B2
:102FB0009AFF43F6C56140F20450FDF794FF0120EB
:102FC000FDF7FCFE152140F20450FDF78CFF44F69E
:102FD000C63140F20450FDF786FF0120FDF7EEFEFA
:102FE000152140F20450FDF77EFF45F2C76140F223
:102FF0000450FDF778FF0120FDF7E0FE152140F2B7
:103000000450FDF770FF45F6C83140F20450FDF75B
:103010006AFF0120FDF7D2FE152140F20450FDF7B2
:1030200062FF4CF6C94140F20450FDF75CFF0120FD
:10303000FDF7C4FE152140F20450FDF754FF4DF298
:10304000CA7140F20450FDF74EFF0120FDF7B6FEB5
:10305000152140F20450FDF746FF4EF6CB7140F2C9
:103060000450FDF740FF0120FDF7A8FE152140F2B6
:103070000450FDF738FF4FF6CC1140F20450FDF735
:1030800032FF0120FDF79AFE152140F20450FDF7B2
:103090002AFFCD2140F20450FDF725FF0120FDF766
:1030A0008DFE152140F20450FDF71DFF4FF2CE7149
:1030B00040F20450FDF717FF0120FDF77FFE1521B8
:1030C00040F20450FDF70FFF4FF6CF1140F20450CD
:1030D000FDF709FF0120FDF771FE152140F20450B4
:1030E000FDF701FF4FF6D07140F20450FDF7FBFEF3
:1030F0000120FDF763FE152140F20450FDF7F3FEB9
:1031000041F2D12140F20450FDF7EDFE0120FDF720
:1031100055FE152140F20450FDF7E5FE42F2D27152
:1031200040F20450FDF7DFFE0120FDF747FE1521B8
:1031300040F20450FDF7D7FE44F6D34140F204506C
:10314000FDF7D1FE0120FDF739FE152140F20450B4
:10315000FDF7C9FE45F2D46140F20450FDF7C3FE0D
:103160000120FDF72BFE152140F20450FDF7BBFEB8
:103170004BF6D52140F20450FDF7B5FE0120FDF7D6
:103180001DFE152140F20450FDF7ADFE4BF6D66151
:1031900040F20450FDF7A7FE0120FDF70FFE1521B8
:1031A00040F20450FDF79FFE4CF6D71140F2045058
:1031B000FDF799FE0120FDF701FE152140F20450B4
:1031C000FDF791FE4CF6D87140F20450FDF78BFEEE
:1031D0000120FDF7F3FD152140F20450FDF783FEB9
:1031E0004DF6D92140F20450FDF77DFE0120FDF798
:1031F000E5FD152140F20450FDF775FE4EF2DA515F
:1032000040F20450FDF76FFE0120FDF7D7FD1521B8
:1032100040F20450FDF767FE4FF2DB4140F20450EC
:10322000FDF761FE0120FDF7C9FD152140F20450B4
:10323000FDF759FE4FF6DC5140F20450FDF753FE06
:103240000120FDF7BBFD152140F20450FDF74BFEB8
:103250004FF6DD7140F20450FDF745FE0120FDF709
:10326000ADFD152140F20450FDF73DFE41F2DE01B7
:1032700040F20450FDF737FE0120FDF79FFD1521B8
:1032800040F20450FDF72FFE42F6DF7140F2045089
:10329000FDF729FE0120FDF791FD152140F20450B4
:1032A000FDF721FE4FF4DF5140F20450FDF71BFE05
:1032B0000120FDF783FD152140F20450FDF713FEB8
:1032C00041F6E17140F20450FDF70DFE0120FDF7DB
:1032D00075FD152140F20450FDF705FE43F2E22191
:1032E00040F20450FDF7FFFD0120FDF767FD1521B9
:1032F00040F20450FDF7F7FD44F2E33140F2045090
:10330000FDF7F1FD0120FDF759FD152140F20450B4
:10331000FDF7E9FD44F6E47140F20450FDF7E3FDEA
:103320000120FDF74BFD152140F20450FDF7DBFDB8
:1033300045F6E50140F20450FDF7D5FD0120FDF70B
:103340003DFD152140F20450FDF7CDFD46F2E6317A
:1033500040F20450FDF7C7FD0120FDF72FFD1521B8
:1033600040F20450FDF7BFFD46F6E72140F204505D
:10337000FDF7B9FD0120FDF721FD152140F20450B4
:10338000FDF7B1FD47F2E87140F20450FDF7ABFDE7
:103390000120FDF713FD152140F20450FDF7A3FDB8
:1033A0004EF6E92140F20450FDF79DFD0120FDF7A6
:1033B00005FD152140F20450FDF795FD4EF2EA712E
:1033C00040F20450FDF78FFD0120FDF7F7FC1521B9
:1033D00040F20450FDF787FD4FF6EB3140F2045008
:1033E000FDF781FD0120FDF7E9FC152140F20450B5
:1033F000FDF779FD4FF47B7140F20450FDF773FD4A
:103400000120FDF7DBFC152140F20450FDF76BFDB8
:103410004FF6ED0140F20450FDF765FD0120FDF788
:10342000CDFC152140F20450FDF75DFD4FF2EE7129
:1034300040F20450FDF757FD0120FDF7BFFC1521B8
:1034400040F20450FDF74FFD4FF6EF1140F20450EB
:10345000FDF749FD0120FDF7B1FC152140F20450B4
:10346000FDF741FD4FF2F07140F20450FDF73BFDD6
:103470000120FDF7A3FC152140F20450FDF733FDB8
:1034800040F2F12140F20450FDF72DFD0120FDF73F
:1034900095FC152140F20450FDF725FD41F2F27133
:1034A00040F20450FDF71FFD0120FDF787FC1521B8
:1034B00040F20450FDF717FD43F2F34140F204508F
:1034C000FDF711FD0120FDF779FC152140F20450B4
:1034D000FDF709FD43F6F46140F20450FDF703FDEA
:1034E0000120FDF76BFC152140F20450FDF7FBFCB9
:1034F0004AF2F52140F20450FDF7F5FC0120FDF7FA
:103500005DFC152140F20450FDF7EDFC4AF2F62176
:1035100040F20450FDF7E7FC0120FDF74FFC1521B8
:1035200040F20450FDF7DFFC4AF6F75140F2045038
:10353000FDF7D9FC0120FDF741FC152140F20450B4
:10354000FDF7D1FC4BF6F81140F20450FDF7CBFC2F
:103550000120FDF733FC152140F20450FDF7C3FCB8
:103560004CF2F92140F20450FDF7BDFC0120FDF7BB
:1035700025FC152140F20450FDF7B5FC4CF6FA315C
:1035800040F20450FDF7AFFC0120FDF717FC1521B8
:1035900040F20450FDF7A7FC4DF6FB2140F2045029
:1035A000FDF7A1FC0120FDF709FC152140F20450B4
:1035B000FDF799FC4EF2FC3140F20450FDF793FC0C
:1035C0000120FDF7FBFB152140F20450FDF78BFCB9
:1035D0004FF6FD7140F20450FDF785FC0120FDF728
:1035E000EDFB152140F20450FDF77DFC40F6FE0195
:1035F00040F20450FDF777FC0120FDF7DFFB1521B9
:1036000040F20450FDF76FFC42F6FF7140F20450A7
:10361000FDF769FC0120FDF7D1FB052140F20450C4
:10362000FDF761FC112140F20450FDF75CFC7820AD
:10363000FDF79EFB152140F20450FDF754FC8F214D
:1036400040F20450FDF74FFC0120FDF7B7FB2321AA
:1036500040F20450FDF747FCB02140F20450FDF762
:1036600042FCC820FDF7AAFB48F2290140F20450B1
:10367000FDF739FC142140F20450FDF734FC47F605
:10368000CE5140F20450FDF72EFC44F6400140F2CA
:103690000450FDF728FC46F2567140F20450FDF745
:1036A00022FC48F6780140F20450FDF71CFC4AF277
:1036B000987140F20450FDF716FC4CF2B53140F21F
:1036C0000450FDF710FC4DF6D16140F20450FDF7B7
:1036D0000AFC4FF2E92140F20450FDF704FC4FF6DA
:1036E000FA7140F20450FDF7FEFB042140F2045051
:1036F000FDF7F9FB00214FF4A040FDF7F4FB00219A
:1037000045F20C00FDF7EFFB40F2AF4145F20E0031
:10371000FDF7E9FB00214FF4A140FDF7E4FB002198
:1037200045F28C00FDF7DFFB40F2AF4145F28E0021
:10373000FDF7D9FB80214FF4E140FDF7D4FB4FF4B6
:10374000616145F20800FDF7CEFB4FF4616145F27F
:103750008800FDF7C8FBFF2148F20250FDF712FC7C
:10376000FF2148F20350FDF70DFCFF2148F2045001
:10377000FDF708FCFF2148F20550FDF703FCFF218F
:1037800048F20650FDF7FEFBFF2148F20B50FDF713
:10379000F9FB40F63F711420FDF7A5FB40F63F51C1
:1037A0001620FDF7A0FB40F635410420FDF79BFBFA
:1037B00000210620FDF797FB06214FF48870FDF7E6
:1037C000B3FB06214FF44470FDF7AEFB2020FDF75C
:1037D000CFFA232140F20450FDF785FBB02140F2DF
:1037E0000450FDF780FB2020FDF7C2FA232140F2B0
:1037F0000450FDF778FB41F2B34140F20450FDF76D
:1038000072FB2020FDF7B4FA232140F20450FDF7AB
:103810006AFB4FF46C7140F20450FDF764FB20200A
:10382000FDF7A6FA052140F20450FDF75CFB2921C3
:1038300040F20450FDF757FB2020FDF799FA00BF36
:10384000FCF728FD4FF4FA70FDF792FAFCF73AFD09
:103850004FF4FA70FDF78CFAFCF7EEFCFCF7AEFFC4
:10386000EEE7FDF7D5BB0000883800080000002017
:103870002400000028010008AC38000824000020C3
:1038800044070000440100080000000000A24A04B0
:103890000000000000000000010203040607080900
:0C38A0000000000000000000000000001C
:040000050800018965
:00000001FF
