:020000040800F2
:100000008007002089010008DB0A0008530500086A
:10001000D70A00082D030008A722000800000000EE
:100020000000000000000000000000008B1C000821
:1000300091030008000000004D0B0008B11D0008EE
:10004000A3010008A3010008A3010008A301000800
:10005000A3010008A3010008A3010008A3010008F0
:10006000A3010008A3010008A3010008A3010008E0
:10007000A3010008A3010008A3010008A3010008D0
:10008000A3010008A3010008A3010008A3010008C0
:10009000A3010008A3010008A3010008A3010008B0
:1000A000A3010008A3010008A3010008A3010008A0
:1000B000A3010008A3010008A3010008A301000890
:1000C000A3010008A3010008A3010008A301000880
:1000D000A301000885200008A3010008A30100086F
:1000E000A3010008A3010008A301000800F002F822
:1000F00000F03AF80AA090E8000C82448344AAF188
:100100000107DA4501D100F02FF8AFF2090EBAE885
:100110000F0013F0010F18BFFB1A43F0010318473B
:100120006026000080260000103A24BF78C878C1FD
:10013000FAD8520724BF30C830C144BF04680C60ED
:10014000704700000023002400250026103A28BF35
:1001500078C1FBD8520728BF30C148BF0B60704739
:100160001FB51FBD10B510BD00F06EF81146FFF7AA
:10017000F7FF02F083FA00F0A0F803B4FFF7F2FFF4
:1001800003BC02F0DFF80000094880470948004737
:10019000FEE7FEE7FEE7FEE7FEE7FEE7FEE7FEE737
:1001A000FEE7FEE704480549054A064B7047000094
:1001B000B51D0008ED000008800100208007002028
:1001C0008003002080030020704700000FB4044922
:1001D00010B503AA029800F009F810BC5DF814FBF2
:1001E0001C0000207047704770477047074B70B580
:1001F0000D467B4400F011F80446284600F020F834
:1002000010B14FF0FF3070BD204670BD9B21000043
:1002100001694A1C02610878704700B58FB0CDE9CA
:1002200001310021059105497944CDE903101146BA
:10023000684600F02EF80FB000BD0000E5FFFFFF9C
:10024000007B00F080007047754600F03FF8AE4636
:1002500005006946534620F00700854618B020B5D2
:10026000FFF7A0FFBDE820404FF000064FF0000769
:100270004FF000084FF0000B21F00701AC46ACE84E
:10028000C009ACE8C009ACE8C009ACE8C0098D46BB
:1002900070472DE9F04106460024D6E90170F56863
:1002A0008046304603E04146B847641C3046A847C4
:1002B0000028F8D12046BDE8F08110B50446AFF320
:1002C00000802046BDE81040FFF757BF0048704748
:1002D0001C01002010B501F04DFD012006490880E9
:1002E0001020C87003208870044800F052F80121E3
:1002F000024800F02CF910BD00000020000C014065
:1003000010B501F037FD0120064908801020C870A3
:1003100003208870044800F03CF80121024800F0F6
:1003200014F910BD00000020000C014000BFFEE7E2
:1003300010B501F01FFD4FF48060074908801020C0
:10034000C87003208870054800F023F84FF48061DE
:10035000024800F0FAF810BD00000020000C014037
:1003600010B501F007FD4FF48060074908801020A8
:10037000C87003208870054800F00BF84FF48061C6
:10038000024800F0E4F810BD00000020000C01401D
:1003900070472DE9F0410246002500260020002389
:1003A0000024002791F803C00CF00F0591F803C05A
:1003B0000CF0100CBCF1000F03D091F802C04CEA15
:1003C000050591F800C0BCF1000F31D01468002081
:1003D0002BE04FF0010C0CFA00F3B1F800C00CEA6E
:1003E00003069E4220D183004FF00F0C0CFA03F756
:1003F000BC4305FA03FC4CEA040491F803C0BCF1C9
:10040000280F06D14FF0010C0CFA00FCC2F814C002
:100410000AE091F803C0BCF1480F05D14FF0010C80
:100420000CFA00FCC2F810C0401C0828D1D314609C
:10043000B1F800C0BCF1FF0F34DD546800202EE09D
:1004400000F1080C4FF0010808FA0CF3B1F800C0F5
:100450000CEA03069E4221D183004FF00F0C0CFAE8
:1004600003F7BC4305FA03FC4CEA040491F803C00B
:10047000BCF1280F05D100F1080C08FA0CF8C2F8FD
:10048000148091F803C0BCF1480F07D100F1080CAB
:100490004FF0010808FA0CF8C2F81080401C082838
:1004A000CED35460BDE8F081F0B50A4600230024A5
:1004B0000021002500F00046B6F1004F02D11D4E8C
:1004C000F16901E01B4E7168C0F3034583B200F48B
:1004D0004016B6F5401F08D121F07061154E7668C0
:1004E00026F07066134F7E6012E000F48016B6F5B9
:1004F000801F06D1032606FA05F4A14341F070617E
:1005000006E0460D360103FA06F6B14341F070618C
:1005100022B1460D360103FA06F6314300F00046DB
:10052000B6F1004F02D1034EF16101E0014E71605E
:10053000F0BD0000000001400246002093680B401F
:100540000BB1012000E0002070474161704701615C
:10055000704700BFFEE7000010B540210B48FFF7D1
:10056000F4FF00F08BF880210848FFF7EEFF02202F
:1005700001F0C2FE40210548FFF7E9FF052001F028
:10058000BBFE40210148FFF7E0FF10BD000C014019
:1005900008B5C020ADF8000003208DF8020010203F
:1005A0008DF8030069460648FFF7F3FE4021044832
:1005B000FFF7CDFF80210248FFF7C9FF08BD00000B
:1005C000000C014010B540210B48FFF7BEFF00F0C2
:1005D00055F880210848FFF7BAFF022001F08CFE91
:1005E00040210548FFF7B3FF052001F085FE4021BB
:1005F0000148FFF7AAFF10BD000C014070B5054689
:100600000026002400F028F800BF18E0402111481F
:10061000FFF79BFF022001F06FFE40210D48FFF71E
:1006200096FF6006040E80210A48FFF785FF08B197
:10063000601CC4B2012001F05FFE701CC6B2082E1F
:10064000E4DB15B9FFF7BEFF01E0FFF785FF2046A9
:1006500070BD0000000C014008B58020ADF800001E
:1006600003208DF8020048208DF8030069460248F7
:10067000FFF78FFE08BD0000000C014008B5802088
:10068000ADF8000003208DF8020010208DF8030063
:1006900069460248FFF77DFE08BD0000000C0140DE
:1006A00070B504460025FFF7E9FF40211348FFF726
:1006B0004CFF00BF1EE004F08000002804DD802114
:1006C0000E48FFF744FF03E080210C48FFF73DFF91
:1006D0006006040E40210948FFF739FF012001F0B0
:1006E0000BFE40210548FFF730FF012001F004FE1A
:1006F000681CC5B2082DDEDB70BD0000000C014097
:1007000010B5FFF7BBFF80210A48FFF720FF40210B
:100710000848FFF71CFF052001F0EEFD8021054889
:10072000FFF713FF062001F0E7FD40210148FFF726
:100730000CFF10BD000C014010B5FFF79FFF4021DA
:100740000C48FFF702FF80210A48FFF7FEFE012058
:1007500001F0D2FD40210748FFF7F9FE032001F028
:10076000CBFD80210348FFF7F2FE042001F0C4FD19
:1007700010BD0000000C014010B50024FFF76CFF15
:1007800080211148FFF7E3FE012001F0B5FD402173
:100790000D48FFF7DCFE012001F0AEFD07E0601C14
:1007A000C4B2FA2C03DDFFF7C7FF012010BD802182
:1007B0000548FFF7C1FE0028F1D140210248FFF7AC
:1007C000C4FE0020F2E70000000C014010B501F06B
:1007D000D1FA4FF48070074908800020C8700320C8
:1007E00088700548FFF7D5FD4FF480710248FFF788
:1007F000AEFE10BD00000020000C014010B501F05D
:10080000B9FA4FF48070074908801020C87003209F
:1008100088700548FFF7BDFD4FF480710248FFF76F
:1008200094FE10BD00000020000C014010B501F046
:10083000A1FA0820064908801020C870032088709B
:100840000448FFF7A6FD08210248FFF77EFE10BD11
:10085000000000200008014010B501F08BFA0820CC
:10086000064908801020C870032088700448FFF7EC
:1008700090FD08210248FFF76AFE10BD000000202D
:100880000008014010B501F075FA02200649088001
:100890001020C870032088700448FFF77AFD0221F9
:1008A0000248FFF752FE10BD000000200008014082
:1008B00010B501F05FFA0220064908801020C870C8
:1008C000032088700448FFF764FD02210248FFF707
:1008D0003EFE10BD000000200008014010B501F0F0
:1008E00049FA0420064908801020C8700320887047
:1008F0000448FFF74EFD04210248FFF726FE10BD15
:10090000000000200008014010B501F033FA042077
:10091000064908801020C870032088700448FFF73B
:1009200038FD04210248FFF712FE10BD0000002030
:100930000008014010B5152140F2045001F07FFD80
:100940004AF28F5140F2045001F079FD152140F236
:10095000045001F074FD012140F2045001F06FFDDC
:10096000152140F2045001F06AFD4AF28F5140F225
:10097000045001F064FD152140F2045001F05FFDC8
:10098000832140F2045001F05AFD152140F2045039
:1009900001F055FD842140F2045001F050FD152175
:1009A00040F2045001F04BFD48F28C0140F204503B
:1009B00001F045FD152140F2045001F040FD45F2E3
:1009C000C70140F2045001F03AFD152140F20450F5
:1009D00001F035FD45F2C50140F2045001F02FFD54
:1009E000152140F2045001F02AFD40F2854140F209
:1009F000045001F024FD152140F2045001F01FFDC8
:100A000040F6860140F2045001F019FD152140F234
:100A1000045001F014FD42F2A90140F2045001F02B
:100A20000EFD152140F2045001F009FD41F2FA21BA
:100A300040F2045001F003FD152140F2045001F092
:100A4000FEFC41F6FD3140F2045001F0F8FC1521A6
:100A500040F2045001F0F3FC4AF6832140F20450C6
:100A600001F0EDFC152140F2045001F0E8FC41F2E8
:100A7000841140F2045001F0E2FC152140F20450D0
:100A800001F0DDFC41F29C0140F2045001F0D7FC82
:100A9000152140F2045001F0D2FC44F6A93140F295
:100AA000045001F0CCFC152140F2045001F0C7FCC9
:100AB0008F2140F2045001F0C2FC052140F20450A5
:100AC00001F0BDFC112140F2045001F0B8FC962069
:100AD00001F0ECFB10BD00BFFEE7704770B50021D0
:100AE00000230F22C47804B3154C246804F4E06496
:100AF000C4F5E064210AC1F10403CA40447804FA51
:100B000003F184781440214309010E4C0678A15565
:100B1000047804F01F050124AC4005786D11AD0088
:100B200005F1E025C5F8004109E0047804F01F054F
:100B30000124AC40044D0678761145F8264070BD7E
:100B40000CED00E000E400E080E100E07047000010
:100B500029B1064AD2690243044BDA6104E0034A30
:100B6000D2698243014BDA617047000000100240F5
:100B700029B1064A92690243044B9A6104E0034A90
:100B800092698243014B9A61704700000010024055
:100B900030B500210022002400232D4D6D6805F0A2
:100BA0000C0121B1042905D0082923D105E0294DE4
:100BB000056022E0274D05601FE0254D6D6805F4B6
:100BC0007012234D6D6805F48034022505EB9242C6
:100BD0001CB9214D554305600BE01D4D6D6805F4B2
:100BE00000351DB11C4D5543056002E0194D5543BC
:100BF000056002E0174D056000BF00BF144D6D6831
:100C000005F0F0010909154D6B5C0568DD40456094
:100C10000F4D6D6805F4E061090A104D6B5C456885
:100C2000DD4085600A4D6D6805F46051C90A0B4DC1
:100C30006B5C4568DD40C560054D6D6805F440415D
:100C4000890B074D6B5CC568B5FBF3F5056130BDDD
:100C50000010024000127A0000093D00220000202E
:100C60003200002010B50421084601F0E8FB4FF4E3
:100C70007C51022001F0E3FB0021022001F0DFFBA8
:100C80000821062001F0DBFB40F63F71162001F041
:100C9000D6FBFF2148F2025001F020FCFF2148F270
:100CA0000B5001F01BFC40F63F71142001F0C7FB14
:100CB000FE2148F2125001F011FCFD2148F21B50B8
:100CC00001F00CFC032148F2104001F007FC3F2129
:100CD00048F2134001F002FC072148F2204001F0E5
:100CE000FDFB312148F2F04001F0F8FB012148F210
:100CF000F44001F0F3FB4FF4965148F2405001F0FC
:100D00009EFB002148F2306001F0E8FB40F2537195
:100D100048F2316001F093FB022148F2706001F06B
:100D2000DDFB4FF4965148F60C2001F088FB0121C1
:100D300048F2E05001F0D2FB4FF4807148F2E350EA
:100D400001F07DFB00214FF40C4001F0C7FBFF21B7
:100D500048F6014001F0C2FBFF2148F6024001F0D5
:100D6000BDFBFF2148F6034001F0B8FBFF2148F628
:100D7000044001F0B3FBFF2148F6054001F0AEFB53
:100D8000FF2148F6064001F0A9FB002148F6074084
:100D900001F0A4FB522148F6084001F09FFB6221BC
:100DA00048F6094001F09AFB882148F60A4001F014
:100DB00095FB882148F60B4001F090FB002148F696
:100DC0000C4001F08BFB882148F60D4001F086FBBA
:100DD000882148F60E4001F081FB882148F60F403B
:100DE00001F07CFB2D2148F6104001F077FB1E211D
:100DF00048F6114001F072FB012148F6124001F063
:100E00006DFB032148F6134001F068FB802148F692
:100E1000144001F063FB002148F6154001F05EFB31
:100E2000002148F6164001F059FB782148F617409A
:100E300001F054FB0A2148F6184001F04FFB0D2148
:100E400048F6194001F04AFBC92148F61A4001F062
:100E500045FBA02148F61B4001F040FB572148F616
:100E60001C4001F03BFB472148F61D4001F036FBDA
:100E7000982148F61E4001F031FB272148F61F401B
:100E800001F02CFB122148F6204001F027FB4821FD
:100E900048F6214001F022FB4C2148F6224001F0A7
:100EA0001DFB002148F6234001F018FB002148F605
:100EB000244001F013FB002148F6254001F00EFB11
:100EC000012148F6264001F009FB012148F62740A0
:100ED00001F004FB012148F6284001F0FFFA01214E
:100EE00048F6294001F0FAFA012148F62A4001F0BB
:100EF000F5FA012148F62B4001F0F0FA012148F6FD
:100F00002C4001F0EBFA012148F62D4001F0E6FA01
:100F1000012148F62E4001F0E1FA012148F62F4068
:100F200001F0DCFA012148F6304001F0D7FA012146
:100F300048F6314001F0D2FA012148F6324001F082
:100F4000CDFA012148F6334001F0C8FA012148F6F4
:100F5000344001F0C3FA012148F6354001F0BEFAF1
:100F6000402148F6364001F0B9FA3D2148F63740B5
:100F700001F0B4FAB02148F6384001F0AFFAB621DA
:100F800048F6394001F0AAFA402148F63A4001F00B
:100F9000A5FA802148F63B4001F0A0FA1B2148F653
:100FA0003C4001F09BFA702148F63D4001F096FA72
:100FB0006E2148F63E4001F091FA202148F63F406C
:100FC00001F08CFAB22148F6404001F087FA002186
:100FD00048F6414001F082FAB02148F6424001F063
:100FE0007DFA802148F6434001F078FA472148F61F
:100FF000444001F073FA002148F6454001F06EFAD2
:10100000002148F6464001F069FA1E2148F64740A3
:1010100001F064FA402148F6484001F05FFA3D21B2
:1010200048F6494001F05AFAB02148F64A4001F02A
:1010300055FAB62148F64B4001F050FA402148F6E7
:101040004C4001F04BFA802148F64D4001F046FA41
:101050001B2148F64E4001F041FA702148F64F40FE
:1010600001F03CFA6E2148F6504001F037FA202199
:1010700048F6514001F032FAB22148F6524001F0F0
:101080002DFA002148F6534001F028FAB02148F625
:10109000544001F023FA802148F6554001F01EFA31
:1010A000472148F6564001F019FA002148F657400A
:1010B00001F014FA002148F6584001F00FFA1E2101
:1010C00048F6594001F00AFA002148F65A4001F06A
:1010D00005FA002148F65B4001F000FA002148F6CD
:1010E0005C4001F0FBF9FC2148F65D4001F0F6F9A7
:1010F000002148F65E4001F0F1F9542148F65F40C6
:1011000001F0ECF96F2148F6604001F0E7F9732136
:1011100048F6614001F0E2F9682148F6624001F0CA
:10112000DDF9692148F6634001F0D8F9622148F6FB
:10113000644001F0D3F9612148F6654001F0CEF931
:101140002D2148F6664001F0C9F9552148F667405F
:1011500001F0C4F9482148F6684001F0BFF9322196
:1011600048F6694001F0BAF9442148F66A4001F0B6
:10117000B5F90A2148F66B4001F0B0F9002148F6B4
:101180006C4001F0ABF9002148F66D4001F0A6F982
:10119000002148F66E4001F0A1F9FD2148F66F40AC
:1011A00001F09CF9002148F6704001F097F91421F4
:1011B00048F6714001F092F9782148F6724001F04A
:1011C0008DF9012148F6734001F088F9FF2148F6B6
:1011D000744001F083F91D2148F6754001F07EF955
:1011E000002148F6764001F079F90A2148F6774067
:1011F00001F074F9202148F6784001F06FF92021C0
:1012000048F6794001F06AF9202148F67A4001F069
:1012100065F9202148F67B4001F060F9202148F66D
:101220007C4001F05BF9202148F67D4001F056F941
:10123000012148F67E4001F051F9492148F67F40EE
:1012400001F04CF9022148F6804001F047F90321F2
:1012500048F6814001F042F91A2148F6824001F037
:101260003DF9712148F6834001F038F9472148F6ED
:10127000844001F033F9C62148F6854001F02EF98B
:10128000462148F6864001F029F9462148F6874074
:1012900001F024F9462148F6884001F01FF9462163
:1012A00048F6894001F01AF9462148F68A4001F0D3
:1012B00015F9462148F68B4001F010F9232148F634
:1012C0008C4001F00BF9092148F68D4001F006F938
:1012D000072148F68E4001F001F9012148F68F40C0
:1012E00001F0FCF8832148F6904001F0F7F8012165
:1012F00048F6914001F0F2F8002148F6924001F0E2
:10130000EDF8002148F6934001F0E8F8652148F631
:10131000944001F0E3F8032148F6954001F0DEF82F
:101320000C2148F6964001F0D9F8002148F6974084
:1013300001F0D4F8102148F6984001F0CFF80021D0
:1013400048F6994001F0CAF8402148F69A4001F069
:10135000C5F83D2148F69B4001F0C0F8B02148F6A1
:101360009C4001F0BBF8B62148F69D4001F0B6F86C
:10137000402148F69E4001F0B1F8802148F69F4098
:1013800001F0ACF81B2148F6A04001F0A7F870214D
:1013900048F6A14001F0A2F86E2148F6A24001F003
:1013A0009DF8202148F6A34001F098F8B22148F6B4
:1013B000A44001F093F8002148F6A54001F08EF812
:1013C000B02148F6A64001F089F8802148F6A740F0
:1013D00001F084F8472148F6A84001F07FF8002189
:1013E00048F6A94001F07AF8002148F6AA4001F039
:1013F00075F81E2148F6AB4001F070F8402148F620
:10140000AC4001F06BF83D2148F6AD4001F066F8C4
:10141000B02148F6AE4001F061F8B62148F6AF4081
:1014200001F05CF8402148F6B04001F057F8802107
:1014300048F6B14001F052F81B2148F6B24001F0E5
:101440004DF8702148F6B34001F048F86E2148F697
:10145000B44001F043F8202148F6B54001F03EF8D1
:10146000B22148F6B64001F039F8002148F6B740FD
:1014700001F034F8B02148F6B84001F02FF880218F
:1014800048F6B94001F02AF8472148F6BA4001F081
:1014900025F8002148F6BB4001F020F8002148F66D
:1014A000BC4001F01BF81E2148F6BD4001F016F8C3
:1014B000402148F6BE4001F011F83D2148F6BF40FA
:1014C00001F00CF8B02148F6C04001F007F8B62151
:1014D00048F6C14001F002F8402148F6C24000F051
:1014E000FDFF802148F6C34000F0F8FF1B2148F6BD
:1014F000C44000F0F3FF702148F6C54000F0EEFF55
:101500006E2148F6C64000F0E9FF202148F6C740AA
:1015100000F0E4FFB22148F6C84000F0DFFF0021F0
:1015200048F6C94000F0DAFFB02148F6CA4000F0A2
:10153000D5FF802148F6CB4000F0D0FF472148F688
:10154000CC4000F0CBFF002148F6CD4000F0C6FFB4
:10155000002148F6CE4000F0C1FF1E2148F6CF40E2
:1015600000F0BCFF402148F6D04000F0B7FF3D211D
:1015700048F6D14000F0B2FFB02148F6D24000F06A
:10158000ADFFB62148F6D34000F0A8FF402148F651
:10159000D44000F0A3FF802148F6D54000F09EFF24
:1015A0001B2148F6D64000F099FF702148F6D7403D
:1015B00000F094FF6E2148F6D84000F08FFF202104
:1015C00048F6D94000F08AFFB22148F6DA4000F030
:1015D00085FF002148F6DB4000F080FFB02148F68F
:1015E000DC4000F07BFF802148F6DD4000F076FF14
:1015F000472148F6DE4000F071FF002148F6DF4049
:1016000000F06CFF002148F6E04000F067FF1E216B
:1016100048F6E14000F062FF002148F6E24000F0A9
:101620005DFF002148F6E34000F058FF002148F636
:10163000E44000F053FF002148F6E54000F04EFF83
:10164000002148F6E64000F049FF002148F6E74057
:1016500000F044FF002148F6E84000F03FFF002181
:1016600048F6E94000F03AFF002148F6EA4000F071
:1016700035FF002148F6EB4000F030FF002148F62E
:10168000EC4000F02BFF002148F6ED4000F026FF73
:10169000002148F6EE4000F021FF002148F6EF401F
:1016A00000F01CFF002148F6F04000F017FF002179
:1016B00048F6F14000F012FF002148F6F24000F039
:1016C0000DFF002148F6F34000F008FF002148F626
:1016D000F44000F003FF002148F6F54000F0FEFE64
:1016E000002148F6F64000F0F9FE002148F6F740E8
:1016F00000F0F4FE002148F6F84000F0EFFE002173
:1017000048F6F94000F0EAFE002148F6FA4000F001
:10171000E5FE002148F6FB4000F0E0FE002148F61F
:10172000FC4000F0DBFE002148F6FD4000F0D6FE54
:10173000002148F6FE4000F0D1FE772148F6FF4038
:1017400000F0CCFE022148F2435000F0C7FE102109
:1017500048F2445000F0C2FE00214FF4064000F071
:10176000BDFEF32148F2026000F0B8FE022148F20B
:10177000036000F0B3FE0C2148F2046000F0AEFEFE
:10178000052148F2066000F0A9FE002148F207603A
:1017900000F0A4FE022148F2526000F09FFE0C49C6
:1017A00048F2716000F06CFE0A4948F2756000F082
:1017B00067FE002148F2806000F090FE40F61F7145
:1017C000162000F03CFE0121022000F038FE10BD82
:1017D000BA490C0289B0E10110B540F63F5116201C
:1017E00000F02DFE012148F24A5000F077FE10BDB6
:1017F00010B540F63241042000F021FE4FF4905124
:10180000022000F01CFE0021022000F018FE422100
:1018100048F6022000F062FE01214FF4847000F0CF
:101820002FFE01214FF4867000F02AFE01214FF4B3
:10183000287000F025FE49F2C7014FF42B7000F02C
:101840001FFE012000F032FD03214FF4287000F04C
:1018500017FE14214FF48C7000F012FE41F27071EB
:101860004FF4907000F00CFE00214FF4927000F0E5
:1018700007FE40F201114FF4947000F001FE4FF4A6
:1018800080314FF4987000F0FBFD4FF4A0414FF40D
:101890009A7000F0F5FD4FF480314FF49C7000F029
:1018A000EFFD4FF480314FF49E7000F0E9FD4FF4EE
:1018B00080314FF4A07000F0E3FD4FF480314FF41D
:1018C000A27000F0DDFD4FF480514FF4A47000F0E1
:1018D000D7FD4FF480314FF4A67000F0D1FD40F2F7
:1018E00061114FF4A87000F0CBFD01214FF4AA70F4
:1018F00000F0C6FDC8214FF4AC7000F0C1FD2A21F4
:101900004FF4B47000F0BCFD4FF47E714FF4B8702A
:1019100000F0B6FD81214FF4BE7000F0B1FD6221F0
:101920004FF4C67000F0ACFDDD214FF4C87000F03C
:10193000A7FD00214FF4D27000F0A2FD15214FF455
:10194000E07000F09DFD00214FF4057000F098FD5F
:1019500080214FF4077000F093FD00214FF40970CF
:1019600000F08EFD06214FF4157000F089FDA149AD
:101970004FF4167000F084FD9F494FF4177000F08B
:101980007FFD9E494FF4187000F07AFD44F6206107
:101990004FF4197000F074FD0C214FF41A7000F030
:1019A0006FFD97494FF41B7000F06AFD20214FF442
:1019B0001C7000F065FD1F214FF41D7000F060FDEC
:1019C0004FF006114FF41E7000F05AFD02214FF443
:1019D0001F7000F055FD01214FF48E7000F050FD96
:1019E00000214FF4A06000F02AFD16214FF488700A
:1019F00000F046FD16214FF4447000F041FDFEF763
:101A000099FF232140F2045000F019FDB02140F26B
:101A1000045000F014FD0A2000F06EFC48F2290189
:101A200040F2045000F00BFD142140F2045000F08D
:101A300006FD47F6CE5140F2045000F000FD44F69A
:101A4000400140F2045000F0FAFC46F2567140F2B8
:101A5000045000F0F4FC48F6780140F2045000F025
:101A6000EEFC4AF2987140F2045000F0E8FC4CF2AF
:101A7000B53140F2045000F0E2FC4DF6D16140F285
:101A8000045000F0DCFC4FF2E92140F2045000F079
:101A9000D6FC4FF6FA7140F2045000F0D0FC04215D
:101AA00040F2045000F0CBFC00214FF4A04000F0C5
:101AB000C6FC002145F20C0000F0C1FC40F2AF4131
:101AC00045F20E0000F0BBFC00214FF4A14000F0F5
:101AD000B6FC002145F28C0000F0B1FC40F2AF41B1
:101AE00045F28E0000F0ABFC80214FF4E14000F0A5
:101AF000A6FC4FF4616145F2080000F0A0FC4FF431
:101B0000616145F2880000F09AFCFF2148F2025022
:101B100000F0E4FCFF2148F2035000F0DFFCFF215D
:101B200048F2045000F0DAFCFF2148F2055000F0C2
:101B3000D5FCFF2148F2065000F0D0FCFF2148F20E
:101B40000B5000F0CBFC40F63F71142000F077FC06
:101B500040F63F51162000F072FC40F6354104205B
:101B600000F06DFC0021062000F069FC06214FF416
:101B7000887000F085FC06214FF4447000F080FC72
:101B80000A2000F0B9FB232140F2045000F057FC7A
:101B9000B02140F2045000F052FC0A2000F0ACFBEF
:101BA000232140F2045000F04AFC41F2B34140F2DC
:101BB000045000F044FC0A2000F09EFB232140F278
:101BC000045000F03CFC4FF46C7140F2045000F003
:101BD00036FC0A2000F090FB052140F2045000F092
:101BE0002EFC292140F2045000F029FC202000F0B6
:101BF0005DFB10BD0500280006000A0006000F006E
:101C000008000C0010B5052140F2045000F017FC4C
:101C1000282140F2045000F012FC642000F046FB42
:101C200040F63441042000F00AFC40F63F511620F3
:101C300000F005FC10BD10B5052140F2045000F085
:101C4000FEFB282140F2045000F0F9FB642000F074
:101C50002DFB052140F2045000F0F1FB102140F271
:101C6000045000F0ECFBC82000F020FB40F63441AB
:101C7000042000F0E4FB40F61F71162000F0DFFBAB
:101C80000121022000F0DBFB10BD704710B500F011
:101C900001F810BD0CB50020019000903348006899
:101CA00040F480303149086000BF3048006800F4DB
:101CB000003000900198401C0190009818B90198DC
:101CC000B0F5A06FF1D12948006800F4003010B1E0
:101CD0000120009001E0002000900098012843D1ED
:101CE0002348006840F01000214908600846006859
:101CF00020F0030008600846006840F00200086019
:101D00001A484068194948600846406848600846D3
:101D1000406840F4806048600846406820F47C10C9
:101D200048600846406840F4E8104860084600688B
:101D300040F08070086000BF0C48006800F0007040
:101D40000028F9D00948406820F00300074948609E
:101D50000846406840F00200486000BF0348406801
:101D600000F00C000828F9D10CBD00000010024062
:101D70000020024010B501210C20FEF7F9FE0121E0
:101D80000846FEF7E5FE10BD042808D14FF0E0211B
:101D9000096941F004014FF0E022116107E04FF0C2
:101DA000E021096921F004014FF0E0221161704740
:101DB0007047000010B51348006840F00100114959
:101DC000086008464068104908400E4948600846C7
:101DD00000680E4908400B4908600846006820F476
:101DE000802008600846406820F4FE0048604FF4F8
:101DF0001F008860FFF74AFF4FF000600449086049
:101E000010BD0000001002400000FFF8FFFFF6FECA
:101E100008ED00E021B1028842F00102028004E0F6
:101E200002884FF6FE731A400280704710B50121F8
:101E30000846FEF78DFE01210846FEF799FEFFF7E2
:101E400099FF01201A4908801820C8700320887063
:101E50001848FEF79EFA40F26710174908800020E4
:101E6000488064208880000700F08EF870201349B5
:101E70000880012048800420888000200881488153
:101E80004FF4807088810020C8815020C88080066F
:101E900000F02EF85021880600F021F80121880773
:101EA000FFF7B8FF0121880700F00AF810BD000015
:101EB00000000020000801403800002042000020FF
:101EC00031B1B0F8442042F40042A0F8442005E0CB
:101ED000B0F84420C2F30E02A0F8442070470A462E
:101EE0000021018B4FF68F73194011430183704716
:101EF00070B5002400220023058C4FF6FE76354095
:101F00000584028C8388048B4FF68F752C40B51E98
:101F10002C400D882C43751E2A400D892A434D887C
:101F20002A43144DA8420BD0134DA84208D0134D9C
:101F3000A84205D0124DA84202D0124DA84213D19A
:101F40004FF6F7752A404D892A434FF6FB752A4014
:101F50008D882A434FF6FF652B404FF6FF552B40E7
:101F60008D892B43CD892B4383800483CD8885863F
:101F7000028470BD002C014000340140004001404B
:101F80000044014000480140002202881D4B984255
:101F90000ED01D4B98420BD0B0F1804F08D01B4B98
:101FA000984205D01A4B984202D01A4B984204D15D
:101FB0004FF68F731A404B881A43174B984207D03D
:101FC000164B984204D04FF6FF431A40CB881A4371
:101FD00002808B8883850B8803850A4B98420BD03F
:101FE000094B984208D00E4B984205D00D4B9842B1
:101FF00002D00D4B984201D10B7A038601238382D4
:1020000070470000002C01400034014000040040F3
:1020100000080040000C0040001000400014004088
:1020200000400140004401400048014010B5FFF766
:10203000A1FE4FF40070114908801020C8700320E1
:1020400088700F48FEF7A5F94FF400710C48FEF7B1
:102050007EFA642000F02AF9FEF7D0FB4FF40071FD
:102060000748FEF772FAC82000F020F94FF400711B
:102070000348FEF76CFAFEF7A9FB10BD0000002034
:10208000000C014010B540F225511D4800F04AF8FF
:1020900010B31B4800F002F9C4B21A48008800F4DB
:1020A0000040C8B91748008800F4804060B10A2C8D
:1020B00003D000201349088020E01248008840F433
:1020C00000401049088019E00D2C06D10D48008809
:1020D00040F480400B49088010E00A480088C0F3B3
:1020E0000D0009490C5407480088401C0549088028
:1020F00008460088C72801DD0020088010BD0000C8
:1021000000380140200000205200002021B18289C7
:1021100042F40052828104E082894DF6FF731A4036
:102120008281704770B502460024002300250020FC
:1021300040F66A16B14200D100BFC1F3421501F06A
:102140001F03012606FA03F3012D02D196893340BD
:1021500006E0022D02D1168A334001E0968A334010
:102160000C12012606FA04F41688344013B10CB19F
:10217000012000E0002070BDF0B5034600240026D9
:102180000025002040F66A17B94200D100BF18466A
:10219000C1F3421401F01F06012707FA06F5012CCE
:1021A00001D10C3004E0022C01D1103000E01430D9
:1021B0001AB107682F43076002E00768AF43076062
:1021C000F0BD00002DE9F04786B005460E4600241C
:1021D000A24600BFA1460027B08900B100BF2F462C
:1021E0002C8A4CF6FF700440F08804432C82AC89A2
:1021F0004EF6F3100440B0883189084371890843D2
:102200000443AC81AC8A4FF6FF400440B0890443DC
:10221000AC8201A8FEF7BCFC1F48874202D1DDF862
:1022200010A001E0DDF80CA0A88900F4004040B146
:102230000AEBCA0000EB0A1031684900B0FBF1F864
:1022400007E00AEBCA0000EB0A1031688900B0FB16
:10225000F1F86420B8FBF0F004012009642101FBCF
:102260001089A88900F4004040B1322000EBC90079
:10227000B0FBF1F000F00700044308E0322000EB6F
:1022800009106421B0FBF1F000F00F0004432C8131
:1022900006B0BDE8F087000000380140014688889C
:1022A000C0F30800704700BFFEE700000146114A76
:1022B00012884A434FF0E0235A6100229A611A467D
:1022C000126942F001021A6100BF4FF0E02210696A
:1022D00000F001021AB100F48032002AF5D04FF06C
:1022E000E022126922F001024FF0E0231A6100227D
:1022F0009A6170471A0000200146114A12784A4339
:102300004FF0E0235A6100229A611A46126942F0A6
:1023100001021A6100BF4FF0E022106900F00102D3
:102320001AB100F48032002AF5D04FF0E022126991
:1023300022F001024FF0E0231A6100229A617047F7
:1023400018000020014600BF7047000010B56FF074
:102350000400FFF719FD0A4800680A49B0FBF1F0D4
:10236000094908700846007800EB4001C1EBC01035
:102370004FF6FF7101EAC0000449088010BD00005B
:102380000400002000127A00180000201A0000202B
:1023900000BF054A128802F04002002AF9D0C2B2FA
:1023A000014B1B1D1A8070470038014070B5044670
:1023B000FEF7A6F91E20FEF773F9FEF7DDF92012ED
:1023C000FEF76EF9FEF7D8F9E0B2FEF769F9FEF70D
:1023D000D3F9FEF795F91F20FEF762F9FEF7CCF965
:1023E0000120FEF70BF905460020FEF707F945EA44
:1023F0000025FEF7A1F9284670BD70B50446FEF72A
:102400007FF91E20FEF74CF9FEF7B6F92012FEF711
:1024100047F9FEF7B1F9E0B2FEF742F9FEF7ACF981
:10242000FEF76EF91F20FEF73BF9FEF7A5F9002035
:10243000FEF7E4F80546FEF77FF9284670BD70B553
:1024400004460D46FEF75CF91E20FEF729F9FEF75B
:1024500093F92012FEF724F9FEF78EF9E0B2FEF7A9
:102460001FF9FEF789F9E8B2FEF71AF9FEF784F9C9
:102470002812FEF715F9FEF77FF9FEF75DF970BD3A
:1024800070B505460C46FEF73BF91E20FEF708F92D
:10249000FEF772F92812FEF703F9FEF76DF9E8B2BC
:1024A000FEF7FEF8FEF768F9E0B2FEF7F9F8FEF77E
:1024B00063F9C4F30720FEF7F3F8FEF75DF9210A8C
:1024C000C1F30720FEF7ECF8FEF756F9200EFEF7F1
:1024D000E7F8FEF751F9FEF72FF970BD70B5044625
:1024E0000D46FEF70DF91E20FEF7DAF8FEF744F967
:1024F0002012FEF7D5F8FEF73FF9E0B2FEF7D0F86C
:10250000FEF73AF92846FEF7CBF8FEF735F9FEF765
:1025100013F970BD2DE9F0410025002600270024A5
:10252000A04600210220FFF78AFF0A20FFF7E4FE01
:102530001420FFF73BFF054605F0200058B11A2094
:10254000FFF734FF064606F0010020B1FFF744F91B
:102550003FA0FDF73BFE05F4007000284DD048F287
:102560000B50FFF74AFF804608F00200002844D0D5
:1025700048F22050FFF741FF044604F08000F8B114
:10258000FEF76AF90520FFF791FEFEF7BDF90A2074
:10259000FFF78CFEFEF7A2F90A20FFF787FEFEF791
:1025A000B3F90A20FFF782FEFFF722F9C820FFF7F0
:1025B0007DFEFDF78FFEFEF77BF927A0FDF706FEF7
:1025C00004F00100C8B104F08000B0B9FEF75AF978
:1025D000FDF796FEFFF716FBFEF728F9FEF77EF9EA
:1025E000FDF7A6FEFA20FFF761FEFDF7B9FEFA201F
:1025F000FFF75CFE1AA0FDF7E9FD48F20250FFF775
:10260000FCFE074607F0010000B348F22050FFF738
:10261000F4FE044604F0010080B9FEF733F9FEF73A
:1026200005F9FEF75BF9FDF76BFE0A20FFF73EFEAA
:10263000FFF701FB0CA0FDF7C9FD07E004F0010066
:1026400020B1FFF7C9F80AA0FDF7C0FDBDE8F08191
:102650005253320D0A0000005253330D0A0000009D
:102660005253340D0A0000005253350D0A00000089
:102670005253312D5253320D0A000000012109201E
:10268000FEF776FA01211348FDF70EFFFFF75EFE15
:102690004FF4E13000F024F8FFF7C8FBFDF778FFB6
:1026A000FFF7C4FC1420FFF701FEFEF7EBF8FEF77E
:1026B000BDF8FEF713F9FDF723FE0A20FFF7F6FD3C
:1026C000FEF7D0FA04A0FDF781FD01E0FFF722FF3D
:1026D000FCE70000000230005253310D0A000000F8
:1026E00010B586B00446012144F20400FEF740FA1A
:1026F0004FF40070ADF8140003208DF81600182078
:102700008DF8170005A91C48FDF743FE4FF48060C3
:10271000ADF8140004208DF8170005A91648FDF740
:1027200038FE25208DF8000003208DF801008DF87B
:10273000020001208DF803006846FEF7CFF90194EE
:102740000020ADF80800ADF80A00ADF80C00ADF8B7
:1027500010000C20ADF80E0001A90848FFF732FD6B
:10276000012240F225510548FFF706FD01210348EB
:10277000FFF7CCFC06B010BD000801400038014056
:10278000A0270008000000203800000028010008F1
:10279000D82700083800002048070000440100083E
:1027A0000000000000A24A04000000000000000039
:1027B00001020304060708090000000000000000F1
:1027C00000000000000001020304010203040607E8
:0827D0000809020406080000DC
:040000050800018965
:00000001FF
