:020000040800F2
:10000000680700208901000845080008B7040008B7
:1000100041080008910200086B0D00080000000074
:100020000000000000000000000000008908000837
:10003000F50200080000000047080008B1090008A8
:10004000A3010008A3010008A3010008A301000800
:10005000A3010008A3010008A3010008A3010008F0
:10006000A3010008A3010008A3010008A3010008E0
:10007000A3010008A3010008A3010008A3010008D0
:10008000A3010008A3010008A3010008A3010008C0
:10009000A3010008A3010008A3010008A3010008B0
:1000A000A3010008A3010008A3010008A3010008A0
:1000B000A3010008A3010008A3010008A301000890
:1000C000A3010008A3010008A3010008A301000880
:1000D000A3010008850C0008A3010008A301000883
:1000E000A3010008A3010008A301000800F002F822
:1000F00000F03AF80AA090E8000C82448344AAF188
:100100000107DA4501D100F02FF8AFF2090EBAE885
:100110000F0013F0010F18BFFB1A43F0010318473B
:1001200094210000B4210000103A24BF78C878C19F
:10013000FAD8520724BF30C830C144BF04680C60ED
:10014000704700000023002400250026103A28BF35
:1001500078C1FBD8520728BF30C148BF0B60704739
:100160001FB51FBD10B510BD00F033F81146FFF7E5
:10017000F7FF00F023FF00F051F803B4FFF7F2FFA0
:1001800003BC00F041FE00000948804709480047D1
:10019000FEE7FEE7FEE7FEE7FEE7FEE7FEE7FEE737
:1001A000FEE7FEE704480549054A064B7047000094
:1001B000B5090008ED00000868010020680700206C
:1001C000680300206803002070477047704770473D
:1001D0007047754600F02CF8AE4605006946534658
:1001E00020F00700854618B020B5FFF7DBFFBDE81B
:1001F00020404FF000064FF000074FF000084FF08E
:10020000000B21F00701AC46ACE8C009ACE8C0091E
:10021000ACE8C009ACE8C0098D46704710B504468B
:10022000AFF300802046BDE81040FFF7A6BF0000F6
:10023000004870470801002010B500F09BFB01202A
:10024000064908801020C87003208870044800F018
:1002500052F80121024800F02CF910BD00000020E6
:10026000000C014010B500F085FB01200649088014
:100270001020C87003208870044800F03CF8012169
:10028000024800F014F910BD00000020000C0140ED
:1002900000BFFEE710B500F06DFB4FF4806007492A
:1002A00008801020C87003208870054800F023F8EB
:1002B0004FF48061024800F0FAF810BD0000002001
:1002C000000C014010B500F055FB4FF48060074969
:1002D00008801020C87003208870054800F00BF8D3
:1002E0004FF48061024800F0E4F810BD00000020E7
:1002F000000C014070472DE9F04102460025002620
:10030000002000230024002791F803C00CF00F0503
:1003100091F803C00CF0100CBCF1000F03D091F861
:1003200002C04CEA050591F800C0BCF1000F31D0C5
:10033000146800202BE04FF0010C0CFA00F3B1F828
:1003400000C00CEA03069E4220D183004FF00F0C40
:100350000CFA03F7BC4305FA03FC4CEA040491F8D9
:1003600003C0BCF1280F06D14FF0010C0CFA00FCC1
:10037000C2F814C00AE091F803C0BCF1480F05D1DF
:100380004FF0010C0CFA00FCC2F810C0401C082809
:10039000D1D31460B1F800C0BCF1FF0F34DD546854
:1003A00000202EE000F1080C4FF0010808FA0CF3D1
:1003B000B1F800C00CEA03069E4221D183004FF041
:1003C0000F0C0CFA03F7BC4305FA03FC4CEA0404D7
:1003D00091F803C0BCF1280F05D100F1080C08FA10
:1003E0000CF8C2F8148091F803C0BCF1480F07D193
:1003F00000F1080C4FF0010808FA0CF8C2F8108060
:10040000401C0828CED35460BDE8F081F0B50A4600
:10041000002300240021002500F00046B6F1004F23
:1004200002D11D4EF16901E01B4E7168C0F3034516
:1004300083B200F44016B6F5401F08D121F0706178
:10044000154E766826F07066134F7E6012E000F459
:100450008016B6F5801F06D1032606FA05F4A143DF
:1004600041F0706106E0460D360103FA06F6B1432D
:1004700041F0706122B1460D360103FA06F63143B0
:1004800000F00046B6F1004F02D1034EF16101E0E9
:10049000014E7160F0BD00000000014002460020E6
:1004A00093680B400BB1012000E0002070474161D0
:1004B00070470161704700BFFEE7000010B54021A2
:1004C0000B48FFF7F4FF00F08BF880210848FFF796
:1004D000EEFF022000F072FC40210548FFF7E9FF23
:1004E000052000F06BFC40210148FFF7E0FF10BD44
:1004F000000C014008B5C020ADF8000003208DF8C5
:10050000020010208DF8030069460648FFF7F3FE4D
:1005100040210448FFF7CDFF80210248FFF7C9FFC3
:1005200008BD0000000C014010B540210B48FFF74A
:10053000BEFF00F055F880210848FFF7BAFF0220FF
:1005400000F03CFC40210548FFF7B3FF052000F018
:1005500035FC40210148FFF7AAFF10BD000C014007
:1005600070B505460026002400F028F800BF18E00A
:1005700040211148FFF79BFF022000F01FFC4021A3
:100580000D48FFF796FF6006040E80210A48FFF72A
:1005900085FF08B1601CC4B2012000F00FFC701C84
:1005A000C6B2082EE4DB15B9FFF7BEFF01E0FFF786
:1005B00085FF204670BD0000000C014008B580207A
:1005C000ADF8000003208DF8020048208DF80300EC
:1005D00069460248FFF78FFE08BD0000000C01408D
:1005E00008B58020ADF8000003208DF8020010202F
:1005F0008DF8030069460248FFF77DFE08BD000044
:10060000000C014070B504460025FFF7E9FF4021CA
:100610001348FFF74CFF00BF1EE004F080000028E5
:1006200004DD80210E48FFF744FF03E080210C48E1
:10063000FFF73DFF6006040E40210948FFF739FF30
:10064000012000F0BBFB40210548FFF730FF0120EF
:1006500000F0B4FB681CC5B2082DDEDB70BD0000E5
:10066000000C014010B5FFF7BBFF80210A48FFF7DF
:1006700020FF40210848FFF71CFF052000F09EFBEB
:1006800080210548FFF713FF062000F097FB40216B
:100690000148FFF70CFF10BD000C014010B5FFF73B
:1006A0009FFF40210C48FFF702FF80210A48FFF717
:1006B000FEFE012000F082FB40210748FFF7F9FE13
:1006C000032000F07BFB80210348FFF7F2FE0420AB
:1006D00000F074FB10BD0000000C014010B50024B8
:1006E000FFF76CFF80211148FFF7E3FE012000F0C7
:1006F00065FB40210D48FFF7DCFE012000F05EFBAA
:1007000007E0601CC4B2FA2C03DDFFF7C7FF01202D
:1007100010BD80210548FFF7C1FE0028F1D140211E
:100720000248FFF7C4FE0020F2E70000000C014081
:1007300010B500F01FF94FF48070074908800020C1
:10074000C870032088700548FFF7D5FD4FF480710D
:100750000248FFF7AEFE10BD00000020000C014073
:1007600010B500F007F94FF4807007490880102099
:10077000C870032088700548FFF7BDFD4FF48071F5
:100780000248FFF794FE10BD00000020000C01405D
:1007900010B500F0EFF80220064908801020C8705C
:1007A000032088700448FFF7A6FD02210248FFF7E6
:1007B0007EFE10BD000000200008014010B500F0D2
:1007C000D9F80220064908801020C87003208870DC
:1007D0000448FFF790FD02210248FFF76AFE10BDB2
:1007E000000000200008014010B500F0C3F804200C
:1007F000064908801020C870032088700448FFF75D
:100800007AFD04210248FFF752FE10BD00000020CF
:100810000008014010B500F0ADF80420064908803A
:100820001020C870032088700448FFF764FD04217D
:100830000248FFF73EFE10BD000000200008014006
:1008400000BFFEE77047704729B1064AD2690243EC
:10085000044BDA6104E0034AD2698243014BDA6156
:10086000704700000010024029B1064A9269024315
:10087000044B9A6104E0034A92698243014B9A61F6
:100880007047000000100240704710B500F002F8F9
:1008900010BD00000CB500200190009033480068A6
:1008A00040F480303149086000BF3048006800F4EF
:1008B000003000900198401C0190009818B90198F0
:1008C000B0F5A06FF1D12948006800F4003010B1F4
:1008D0000120009001E0002000900098012843D101
:1008E0002348006840F0100021490860084600686D
:1008F00020F0030008600846006840F0020008602D
:100900001A484068194948600846406848600846E7
:10091000406840F4806048600846406820F47C10DD
:1009200048600846406840F4E8104860084600689F
:1009300040F08070086000BF0C48006800F0007054
:100940000028F9D00948406820F0030007494860B2
:100950000846406840F00200486000BF0348406815
:1009600000F00C000828F9D10CBD00000010024076
:100970000020024010B501210C20FFF775FF012176
:100980000846FFF761FF10BD042808D14FF0E021B1
:10099000096941F004014FF0E022116107E04FF0D6
:1009A000E021096921F004014FF0E0221161704754
:1009B0007047000010B51348006840F0010011496D
:1009C000086008464068104908400E4948600846DB
:1009D00000680E4908400B4908600846006820F48A
:1009E000802008600846406820F4FE0048604FF40C
:1009F0001F008860FFF749FF4FF00060044908605E
:100A000010BD0000001002400000FFF8FFFFF6FEDE
:100A100008ED00E021B1028842F00102028004E00A
:100A200002884FF6FE731A400280704710B501210C
:100A30000846FFF709FF01210846FFF715FFFFF7FA
:100A400099FF01201A4908801820C8700320887077
:100A50001848FFF750FC40F2671017490880002043
:100A6000488064208880000700F08EF870201349C9
:100A70000880012048800420888000200881488167
:100A80004FF4807088810020C8815020C880800683
:100A900000F02EF85021880600F021F80121880787
:100AA000FFF7B8FF0121880700F00AF810BD000029
:100AB0000000002000080140240000202E0000203B
:100AC00031B1B0F8442042F40042A0F8442005E0DF
:100AD000B0F84420C2F30E02A0F8442070470A4642
:100AE0000021018B4FF68F7319401143018370472A
:100AF00070B5002400220023058C4FF6FE763540A9
:100B00000584028C8388048B4FF68F752C40B51EAC
:100B10002C400D882C43751E2A400D892A434D8890
:100B20002A43144DA8420BD0134DA84208D0134DB0
:100B3000A84205D0124DA84202D0124DA84213D1AE
:100B40004FF6F7752A404D892A434FF6FB752A4028
:100B50008D882A434FF6FF652B404FF6FF552B40FB
:100B60008D892B43CD892B4383800483CD88858653
:100B7000028470BD002C014000340140004001405F
:100B80000044014000480140002202881D4B984269
:100B90000ED01D4B98420BD0B0F1804F08D01B4BAC
:100BA000984205D01A4B984202D01A4B984204D171
:100BB0004FF68F731A404B881A43174B984207D051
:100BC000164B984204D04FF6FF431A40CB881A4385
:100BD00002808B8883850B8803850A4B98420BD053
:100BE000094B984208D00E4B984205D00D4B9842C5
:100BF00002D00D4B984201D10B7A038601238382E8
:100C000070470000002C0140003401400004004007
:100C100000080040000C004000100040001400409C
:100C200000400140004401400048014010B5FFF77A
:100C3000A1FE4FF40070114908801020C8700320F5
:100C400088700F48FFF757FB4FF400710C48FFF70F
:100C500030FC642000F08CF8FFF782FD4FF4007147
:100C60000748FFF724FCC82000F082F84FF4007119
:100C70000348FFF71EFCFFF75BFD10BD00000020DE
:100C8000000C014010B540F225511D4800F03EF81F
:100C900010B31B4800F064F8C4B21A48008800F48E
:100CA0000040C8B91748008800F4804060B10A2CA1
:100CB00003D000201349088020E01248008840F447
:100CC00000401049088019E00D2C06D10D4800881D
:100CD00040F480400B49088010E00A480088C0F3C7
:100CE0000D0009490C5407480088401C054908803C
:100CF00008460088C72801DD0020088010BD0000DC
:100D000000380140200000203E00002070B502465F
:100D1000002400230025002040F66A16B14200D1CD
:100D200000BFC1F3421501F01F03012606FA03F3C9
:100D3000012D02D19689334006E0022D02D1168A98
:100D4000334001E0968A33400C12012606FA04F47F
:100D50001688344013B10CB1012000E0002070BDB2
:100D600001468888C0F30800704700BFFEE7000016
:100D70000146114A12884A434FF0E0235A6100228B
:100D80009A611A46126942F001021A6100BF4FF0DF
:100D9000E022106900F001021AB100F48032002A4A
:100DA000F5D04FF0E022126922F001024FF0E0236B
:100DB0001A6100229A6170471A0000200146114A08
:100DC00012784A434FF0E0235A6100229A611A4692
:100DD000126942F001021A6100BF4FF0E02210696F
:100DE00000F001021AB100F48032002AF5D04FF071
:100DF000E022126922F001024FF0E0231A61002282
:100E00009A61704718000020014600BF704700003B
:100E100010B56FF00400FFF7B7FD0A4800680A49F3
:100E2000B0FBF1F0094908700846007800EB40017A
:100E3000C1EBC0104FF6FF7101EAC0000449088001
:100E400010BD00000400002000127A0018000020ED
:100E50001A00002070B50446FFF704FC1E20FFF7BF
:100E6000D1FBFFF73BFC2012FFF7CCFBFFF736FC72
:100E7000E0B2FFF7C7FBFFF731FCFFF7F3FB1F20E2
:100E8000FFF7C0FBFFF72AFC0120FFF769FB0546CF
:100E90000020FFF765FB45EA0025FFF7FFFB28462A
:100EA00070BD70B50446FFF7DDFB1E20FFF7AAFBFF
:100EB000FFF714FC2012FFF7A5FBFFF70FFCE0B2D1
:100EC000FFF7A0FBFFF70AFCFFF7CCFB1F20FFF7A3
:100ED00099FBFFF703FC0020FFF742FB0546FFF7F5
:100EE000DDFB284670BD70B504460D46FFF7BAFB22
:100EF0001E20FFF787FBFFF7F1FB2012FFF782FBB5
:100F0000FFF7ECFBE0B2FFF77DFBFFF7E7FBE8B292
:100F1000FFF778FBFFF7E2FB2812FFF773FBFFF701
:100F2000DDFBFFF7BBFB70BD70B505460C46FFF758
:100F300099FB1E20FFF766FBFFF7D0FB2812FFF797
:100F400061FBFFF7CBFBE8B2FFF75CFBFFF7C6FBEB
:100F5000E0B2FFF757FBFFF7C1FBC4F30720FFF731
:100F600051FBFFF7BBFB210AC1F30720FFF74AFB48
:100F7000FFF7B4FB200EFFF745FBFFF7AFFBFFF7D2
:100F80008DFB70BD70B504460D46FFF76BFB1E2050
:100F9000FFF738FBFFF7A2FB2012FFF733FBFFF749
:100FA0009DFBE0B2FFF72EFBFFF798FB2846FFF70B
:100FB00029FBFFF793FBFFF771FB70BDFFF714FCF4
:100FC00001210920FFF750FC0121FE48FFF71EFA1E
:100FD000FFF71EFFFFF72AFDFFF78CFAFFF742F934
:100FE000FFF7D6FBFFF722FE1420FFF7C1FEFFF745
:100FF00011FCC820FFF7BCFEFFF7F6FB6420FFF7EB
:10100000B7FEFFF707FC6420FFF7B2FE01F04FB90F
:1010100004210846FFF767FF4FF47C510220FFF7D9
:1010200062FF00210220FFF75EFF08210620FFF784
:101030005AFF40F63F711620FFF755FFFF2148F297
:101040000250FFF79FFFFF2148F20B50FFF79AFF76
:1010500040F63F711420FFF746FFFE2148F2125080
:10106000FFF790FFFD2148F21B50FFF78BFF032194
:1010700048F21040FFF786FF3F2148F21340FFF788
:1010800081FF072148F22040FFF77CFF312148F221
:10109000F040FFF777FF012148F2F440FFF772FFBD
:1010A0004FF4965148F24050FFF71DFF002148F2DF
:1010B0003060FFF767FF40F2537148F23160FFF78D
:1010C00012FF022148F27060FFF75CFF4FF4965167
:1010D00048F60C20FFF707FF012148F2E050FFF728
:1010E00051FF4FF4807148F2E350FFF7FCFE0021FE
:1010F0004FF40C40FFF746FFFF2148F60140FFF791
:1011000041FFFF2148F60240FFF73CFFFF2148F670
:101110000340FFF737FFFF2148F60440FFF732FF97
:10112000FF2148F60540FFF72DFFFF2148F6064056
:10113000FFF728FF002148F60740FFF723FF522161
:1011400048F60840FFF71EFF622148F60940FFF706
:1011500019FF882148F60A40FFF714FF882148F656
:101160000B40FFF70FFF002148F60C40FFF70AFF86
:10117000882148F60D40FFF705FF882148F60E400C
:10118000FFF700FF882148F60F40FFF7FBFE2D21F7
:1011900048F61040FFF7F6FE1E2148F61140FFF713
:1011A000F1FE012148F61240FFF7ECFE032148F65C
:1011B0001340FFF7E7FE802148F61440FFF7E2FEF8
:1011C000002148F61540FFF7DDFE002148F61640E5
:1011D000FFF7D8FE782148F61740FFF7D3FE0A2123
:1011E00048F61840FFF7CEFE0D2148F61940FFF7EC
:1011F000C9FEC92148F61A40FFF7C4FEA02148F6EF
:101200001B40FFF7BFFE572148F61C40FFF7BAFE10
:10121000472148F61D40FFF7B5FE982148F61E40CD
:10122000FFF7B0FE272148F61F40FFF7ABFE122163
:1012300048F62040FFF7A6FE482148F62140FFF778
:10124000A1FE4C2148F62240FFF79CFE002148F603
:101250002340FFF797FE002148F62440FFF792FE57
:10126000002148F62540FFF78DFE012148F6264073
:10127000FFF788FE012148F62740FFF783FE012192
:1012800048F62840FFF77EFE012148F62940FFF787
:1012900079FE012148F62A40FFF774FE012148F645
:1012A0002B40FFF76FFE012148F62C40FFF76AFE46
:1012B000012148F62D40FFF765FE012148F62E403A
:1012C000FFF760FE012148F62F40FFF75BFE01218A
:1012D00048F63040FFF756FE012148F63140FFF74F
:1012E00051FE012148F63240FFF74CFE012148F63D
:1012F0003340FFF747FE012148F63440FFF742FE36
:10130000012148F63540FFF73DFE402148F63640C2
:10131000FFF738FE3D2148F63740FFF733FEB02196
:1013200048F63840FFF72EFEB62148F63940FFF761
:1013300029FE402148F63A40FFF724FE802148F676
:101340003B40FFF71FFE1E2148F63C40FFF71AFE08
:10135000702148F63D40FFF715FE6E2148F63E40ED
:10136000FFF710FE202148F63F40FFF70BFEB521A6
:1013700048F64040FFF706FE002148F64140FFF7DF
:1013800001FEB02148F64240FFF7FCFD802148F6FF
:101390004340FFF7F7FD472148F64440FFF7F2FDD1
:1013A000002148F64540FFF7EDFD002148F6464094
:1013B000FFF7E8FD1E2148F64740FFF7E3FD402117
:1013C00002E000000002300048F64840FFF7DAFD76
:1013D0003D2148F64940FFF7D5FDB02148F64A4087
:1013E000FFF7D0FDB62148F64B40FFF7CBFD40217B
:1013F00048F64C40FFF7C6FD802148F64D40FFF708
:10140000C1FD1E2148F64E40FFF7BCFD702148F695
:101410004F40FFF7B7FD6E2148F65040FFF7B2FD91
:10142000202148F65140FFF7ADFDB52148F6524066
:10143000FFF7A8FD002148F65340FFF7A3FDB021B8
:1014400048F65440FFF79EFD802148F65540FFF7CF
:1014500099FD472148F65640FFF794FD002148F6D4
:101460005740FFF78FFD002148F65840FFF78AFDEF
:101470001E2148F65940FFF785FD002148F65A40E5
:10148000FFF780FD002148F65B40FFF77BFD002160
:1014900048F65C40FFF776FDFC2148F65D40FFF71B
:1014A00071FD002148F65E40FFF76CFD542148F6BF
:1014B0005F40FFF767FD6F2148F66040FFF762FD70
:1014C000732148F66140FFF75DFD682148F66240F0
:1014D000FFF758FD692148F66340FFF753FD62218D
:1014E00048F66440FFF74EFD612148F66540FFF77E
:1014F00049FD2D2148F66640FFF744FD552148F689
:101500006740FFF73FFD482148F66840FFF73AFD86
:10151000322148F66940FFF735FD442148F66A401C
:10152000FFF730FD0A2148F66B40FFF72BFD002145
:1015300048F66C40FFF726FD002148F66D40FFF7A6
:1015400021FD002148F66E40FFF71CFDFD2148F605
:101550006F40FFF717FD002148F67040FFF712FDBE
:10156000142148F67140FFF70DFD782148F67240CE
:10157000FFF708FD012148F67340FFF703FDFF2147
:1015800048F67440FFF7FEFC1D2148F67540FFF752
:10159000F9FC002148F67640FFF7F4FC0A2148F6F2
:1015A0007740FFF7EFFC202148F67840FFF7EAFC90
:1015B000202148F67940FFF7E5FC202148F67A40E3
:1015C000FFF7E0FC202148F67B40FFF7DBFC202101
:1015D00048F67C40FFF7D6FC202148F67D40FFF717
:1015E000D1FC012148F67E40FFF7CCFC3D2148F6B6
:1015F0007F40FFF7C7FC022148F68040FFF7C2FC9E
:10160000032148F68140FFF7BDFC1A2148F68240CD
:10161000FFF7B8FC712148F68340FFF7B3FC472180
:1016200048F68440FFF7AEFCC62148F68540FFF738
:10163000A9FC462148F68640FFF7A4FC462148F65F
:101640008740FFF79FFC462148F68840FFF79AFC49
:10165000462148F68940FFF795FC462148F68A4026
:10166000FFF790FC462148F68B40FFF78BFC2321C7
:1016700048F68C40FFF786FC092148F68D40FFF7BD
:1016800081FC072148F68E40FFF77CFC012148F6DB
:101690008F40FFF777FC832148F69040FFF772FCFC
:1016A000012148F69140FFF76DFC002148F6924079
:1016B000FFF768FC002148F69340FFF763FC6521C3
:1016C00048F69440FFF75EFC032148F69540FFF78B
:1016D00059FC0C2148F69640FFF754FC002148F6CF
:1016E0009740FFF74FFC102148F69840FFF74AFC5F
:1016F000002148F69940FFF745FC402148F69A4002
:10170000FFF740FC3D2148F69B40FFF73BFCB02132
:1017100048F69C40FFF736FCB62148F69D40FFF79F
:1017200031FC402148F69E40FFF72CFC802148F612
:101730009F40FFF727FC1E2148F6A040FFF722FC40
:10174000702148F6A140FFF71DFC6E2148F6A2402B
:10175000FFF718FC202148F6A340FFF713FCB52142
:1017600048F6A440FFF70EFC002148F6A540FFF71D
:1017700009FCB02148F6A640FFF704FC802148F69A
:10178000A740FFF7FFFB472148F6A840FFF7FAFB09
:10179000002148F6A940FFF7F5FB002148F6AA40D2
:1017A000FFF7F0FB1E2148F6AB40FFF7EBFB4021B3
:1017B00048F6AC40FFF7E6FB3D2148F6AD40FFF7A9
:1017C000E1FBB02148F6AE40FFF7DCFBB62148F65E
:1017D000AF40FFF7D7FB402148F6B040FFF7D2FB00
:1017E000802148F6B140FFF7CDFB1E2148F6B240FC
:1017F000FFF7C8FB702148F6B340FFF7C3FB6E212B
:1018000048F6B440FFF7BEFB202148F6B540FFF78D
:10181000B9FBB52148F6B640FFF7B4FB002148F606
:10182000B740FFF7AFFBB02148F6B840FFF7AAFB7F
:10183000802148F6B940FFF7A5FB472148F6BA409A
:10184000FFF7A0FB002148F6BB40FFF79BFB002100
:1018500048F6BC40FFF796FB1E2148F6BD40FFF757
:1018600091FB402148F6BE40FFF78CFB3D2148F636
:10187000BF40FFF787FBB02148F6C040FFF782FB6F
:10188000B62148F6C140FFF77DFB402148F6C24033
:10189000FFF778FB802148F6C340FFF773FB1E215A
:1018A00048F6C440FFF76EFB702148F6C540FFF7CD
:1018B00069FB6E2148F6C640FFF764FB202148F61D
:1018C000C740FFF75FFBB52148F6C840FFF75AFB5A
:1018D000002148F6C940FFF755FBB02148F6CA4041
:1018E000FFF750FB802148F6CB40FFF74BFB472129
:1018F00048F6CC40FFF746FB002148F6CD40FFF705
:1019000041FB002148F6CE40FFF73CFB1E2148F684
:10191000CF40FFF737FB402148F6D040FFF732FBBE
:101920003D2148F6D140FFF72DFBB02148F6D240CB
:10193000FFF728FBB62148F6D340FFF723FB4021F1
:1019400048F6D440FFF71EFB802148F6D540FFF74C
:1019500019FB1E2148F6D640FFF714FB702148F60C
:10196000D740FFF70FFB6E2148F6D840FFF70AFB80
:10197000202148F6D940FFF705FBB52148F6DA40AB
:10198000FFF700FB002148F6DB40FFF7FBFAB02130
:1019900048F6DC40FFF7F6FA802148F6DD40FFF715
:1019A000F1FA472148F6DE40FFF7ECFA002148F64D
:1019B000DF40FFF7E7FA002148F6E040FFF7E2FAE0
:1019C0001E2148F6E140FFF7DDFA002148F6E2402B
:1019D000FFF7D8FA002148F6E340FFF7D3FA0021D9
:1019E00048F6E440FFF7CEFA002148F6E540FFF75D
:1019F000C9FA002148F6E640FFF7C4FA002148F68C
:101A0000E740FFF7BFFA002148F6E840FFF7BAFACF
:101A1000002148F6E940FFF7B5FA002148F6EA4010
:101A2000FFF7B0FA002148F6EB40FFF7ABFA0021D0
:101A300048F6EC40FFF7A6FA002148F6ED40FFF724
:101A4000A1FA002148F6EE40FFF79CFA002148F683
:101A5000EF40FFF797FA002148F6F040FFF792FABF
:101A6000002148F6F140FFF78DFA002148F6F240D8
:101A7000FFF788FA002148F6F340FFF783FA0021C8
:101A800048F6F440FFF77EFA002148F6F540FFF7EC
:101A900079FA002148F6F640FFF774FA002148F67B
:101AA000F740FFF76FFA002148F6F840FFF76AFAAF
:101AB000002148F6F940FFF765FA002148F6FA40A0
:101AC000FFF760FA002148F6FB40FFF75BFA0021C0
:101AD00048F6FC40FFF756FA002148F6FD40FFF7B4
:101AE00051FA002148F6FE40FFF74CFA5F2148F614
:101AF000FF40FFF747FA022148F24350FFF742FA4E
:101B0000102148F24450FFF73DFA00214FF40640FF
:101B1000FFF738FAF32148F20260FFF733FA0221A7
:101B200048F20360FFF72EFA0C2148F20460FFF739
:101B300029FA052148F20660FFF724FA002148F24D
:101B40000760FFF71FFA022148F25260FFF71AFA06
:101B5000FE4948F27160FFF7E7F9FD4948F2756008
:101B6000FFF7E2F9002148F28060FFF70BFA40F638
:101B70001F711620FFF7B7F901210220FFF7B3F913
:101B800000210220FFF7AFF90120FFF717F9142019
:101B9000FFF760F91A20FFF75DF948F20250FFF7EE
:101BA00080F948F20B50FFF77CF948F22050FFF71C
:101BB00078F940F63F711620FFF795F9FF2148F2BA
:101BC0000250FFF7DFF9FF2148F20B50FFF7DAF977
:101BD00040F63F711420FFF786F940F63F5116207A
:101BE000FFF781F9012148F24A50FFF7CBF90021B4
:101BF0000220FFF778F90120FFF7E0F81420FFF743
:101C000029F91A20FFF726F948F20250FFF749F99F
:101C100048F20B50FFF745F948F22050FFF741F921
:101C200040F63F711620FFF75EF9FF2148F202509F
:101C3000FFF7A8F9FF2148F20B50FFF7A3F940F690
:101C40003F711420FFF74FF90120FFF7B7F840F676
:101C500032410420FFF747F94FF490510220FFF77B
:101C600042F900210220FFF73EF9422148F6022006
:101C7000FFF788F901214FF48470FFF755F901212E
:101C80004FF48670FFF750F901214FF42870FFF7E9
:101C90004BF949F2CC014FF42B70FFF745F90120C5
:101CA000FFF766F803214FF42870FFF73DF9142180
:101CB0004FF48C70FFF738F941F270714FF4907067
:101CC000FFF732F900214FF49270FFF72DF940F23F
:101CD00001114FF49470FFF727F94FF480314FF45E
:101CE0009870FFF721F94FF4A0414FF49A70FFF775
:101CF0001BF94FF480314FF49C70FFF715F94FF446
:101D000080314FF49E70FFF70FF94FF480314FF49C
:101D1000A070FFF709F94FF480314FF4A270FFF77C
:101D200003F94FF480514FF4A470FFF7FDF84FF41E
:101D300080314FF4A670FFF7F7F840F261114FF4CD
:101D4000A870FFF7F1F801214FF4AA70FFF7ECF843
:101D5000C8214FF4AC70FFF7E7F82A214FF4B470B4
:101D6000FFF7E2F840F211414FF4B870FFF7DCF8EA
:101D700081214FF4BE70FFF7D7F865214FF4C6708C
:101D8000FFF7D2F8E2214FF4C870FFF7CDF8002139
:101D90004FF4D270FFF7C8F815214FF4E070FFF749
:101DA000C3F800214FF40570FFF7BEF880214FF40F
:101DB0000770FFF7B9F800214FF40970FFF7B4F886
:101DC00006214FF41570FFF7AFF862494FF4167013
:101DD000FFF7AAF860494FF41770FFF7A5F85F49BD
:101DE0004FF41870FFF7A0F844F620614FF4197013
:101DF000FFF79AF80C214FF41A70FFF795F858493D
:101E00004FF41B70FFF790F820214FF41C70FFF780
:101E10008BF81F214FF41D70FFF786F84FF0061165
:101E20004FF41E70FFF780F802214FF41F70FFF788
:101E30007BF801214FF48E70FFF776F800214FF404
:101E4000A060FFF750F816214FF48870FFF76CF888
:101E500016214FF44470FFF767F8152140F2045043
:101E6000FFF741F84AF28F5140F20450FFF73BF878
:101E70000120FEF77DFF152140F20450FFF733F8F3
:101E8000012140F20450FFF72EF80520FEF770FF05
:101E9000152140F20450FFF726F84AF28F5140F224
:101EA0000450FFF720F80120FEF762FF152140F2F1
:101EB0000450FFF718F8832140F20450FFF713F89D
:101EC0000120FEF77BFF152140F20450FFF70BF8CD
:101ED000842140F20450FFF706F80120FEF76EFF60
:101EE000152140F20450FEF7FEFF40F2916140F2EE
:101EF0000450FEF7F8FF0120FEF760FF152140F2C5
:101F00000450FEF7F0FF48F28C0140F20450FEF757
:101F1000EAFF0120FEF752FF152140F20450FEF7C0
:101F2000E2FF45F2C70140F20450FEF7DCFF01205A
:101F3000FEF744FF152140F20450FEF7D4FF45F2AE
:101F4000C50140F20450FEF7CEFF0BE0BA490C0287
:101F500089B0E1010500280006000A0006000F0014
:101F600008000C000120FEF729FF152140F2045063
:101F7000FEF7B9FF40F2854140F20450FEF7B3FF8F
:101F80000120FEF71BFF152140F20450FEF7ABFFC6
:101F900040F6860140F20450FEF7A5FF0120FEF74F
:101FA0000DFF152140F20450FEF79DFF42F2A901FA
:101FB00040F20450FEF797FF0120FEF7FFFE1521C7
:101FC00040F20450FEF78FFF41F2FA2140F2045034
:101FD000FEF789FF0120FEF7F1FE152140F20450C3
:101FE000FEF781FF41F6FD3140F20450FEF77BFF22
:101FF0000120FEF7E3FE152140F20450FEF773FFC7
:102000004AF6832140F20450FEF76DFF0120FEF7EF
:10201000D5FE152140F20450FEF765FF41F2841110
:1020200040F20450FEF75FFF0120FEF7C7FE1521C6
:1020300040F20450FEF757FF41F29C0140F2045079
:10204000FEF751FF0120FEF7B9FE152140F20450C2
:10205000FEF749FF44F6A93140F20450FEF743FF72
:102060000120FEF7ABFE152140F20450FEF73BFFC6
:102070008F2140F20450FEF736FF0120FEF79EFE4E
:10208000052140F20450FEF72EFF112140F20450CA
:10209000FEF729FF7820FEF76BFE232140F2045063
:1020A000FEF721FFB02140F20450FEF71CFFC820CC
:1020B000FEF784FE48F2290140F20450FEF713FFB8
:1020C000142140F20450FEF70EFF47F6CE5140F2C5
:1020D0000450FEF708FF44F6400140F20450FEF7BA
:1020E00002FF46F2567140F20450FEF7FCFE48F63D
:1020F000780140F20450FEF7F6FE4AF2987140F281
:102100000450FEF7F0FE4CF2B53140F20450FEF7F9
:10211000EAFE4DF6D16140F20450FEF7E4FE4FF2C4
:10212000E92140F20450FEF7DEFE4FF6FA7140F26C
:102130000450FEF7D8FE042140F20450FEF7D3FE0F
:1021400000214FF4A040FEF7CEFE002145F20C0026
:10215000FEF7C9FE40F2AF4145F20E00FEF7C3FEA6
:1021600000214FF4A140FEF7BEFE002145F28C0095
:10217000FEF7B9FE40F2AF4145F28E00FEF7B3FE26
:1021800080214FF4E140FEF7AEFE4FF4616145F26D
:102190000800FEF7A8FE4FF4616145F28800FEF7E3
:1021A000A2FEFF2148F20250FEF7ECFEFF2148F2AA
:1021B0000350FEF7E7FEFF2148F20450FEF7E2FE6F
:1021C000FF2148F20550FEF7DDFEFF2148F20650E0
:1021D000FEF7D8FEFF2148F20B50FEF7D3FE40F683
:1021E0003F711420FEF77FFE40F63F511620FEF7A8
:1021F0007AFE40F635410420FEF775FE00210620E8
:10220000FEF771FE06214FF48870FEF78DFE062161
:102210004FF44470FEF788FE2020FEF7A9FD23212D
:1022200040F20450FEF75FFEB02140F20450FEF78A
:102230005AFE2020FEF79CFD232140F20450FEF7B9
:1022400052FE41F2B34140F20450FEF74CFE202012
:10225000FEF78EFD232140F20450FEF744FE4FF4BA
:102260006C7140F20450FEF73EFE2020FEF780FD28
:10227000052140F20450FEF736FE292140F20450B9
:10228000FEF731FE2020FEF773FD00BFFEF702F8D7
:102290004FF4FA70FEF76CFDFEF714F84FF4FA7085
:1022A000FEF766FDFDF7C8FFFEF788FAEEE7FEF7DA
:1022B000AFBE0000D422000800000020240000006F
:1022C00028010008F822000824000020440700002C
:1022D000440100080000000000A24A0400000000C1
:1022E00000000000010203040607080900000000C6
:0822F0000000000000000000E6
:040000050800018965
:00000001FF
